:020000040800F2
:100000000000022081130008150A0008190A0008E0
:100010001D0A0008210A0008250A00080000000047
:10002000000000000000000000000000290A000895
:100030002D0A000800000000310A0008350A0008F7
:10004000D1130008D1130008D1130008D113000800
:10005000D1130008D1130008D1130008D1130008F0
:10006000D1130008D1130008D1130008390A000881
:10007000D1130008D1130008D1130008D1130008D0
:10008000D1130008D1130008D1130008D1130008C0
:10009000450A0008510A0008D1130008D1130008CE
:1000A000D11300085D0A0008D1130008D11300081D
:1000B000690A0008D1130008750A0008D113000866
:1000C000D1130008D1130008D1130008D113000880
:1000D000D1130008D1130008D1130008D113000870
:1000E000D1130008D1130008D1130008D113000860
:1000F000D1130008D1130008D1130008810A0008A9
:10010000D1130008D1130008D1130008D11300083F
:10011000D11300088D0A0008D1130008D11300087C
:10012000D1130008D1130008D1130008D11300081F
:10013000D1130008D1130008D1130008D11300080F
:10014000D1130008D1130008D1130008990A000840
:10015000D1130008D1130008D1130008D1130008EF
:10016000D1130008D1130008D1130008D1130008DF
:10017000D1130008D1130008D113000800000000BB
:08018000D1130008D11300089F
:1001900010B5054C237833B9044B13B10448AFF3C1
:1001A00000800123237010BD080300200000000020
:1001B000EC73000808B5034B1BB103490348AFF3C8
:1001C000008008BD000000000C030020EC73000854
:1001D000034613F8012B002AFBD1181A0138704787
:1001E00001F0FF01102A2BDB10F0070F08D010F8E8
:1001F000013B013A8B422DD010F0070F42B3F6D1EC
:10020000F0B441EA012141EA014122F007047FF004
:1002100000070023F0E80256083C85EA010586EA5B
:10022000010685FA47F5A3FA87F586FA47F6A5FA97
:1002300087F68EB9EED1F0BC01F0FF0102F00702A3
:1002400032B110F8013B013A83EA010313B1F8D14E
:100250000020704701387047002D06BF354603382F
:10026000073815F0010F07D1013015F4807F02BF68
:10027000013015F4C03F0130F0BC0138704700BFB9
:1002800053B94AB9002908BF00281CBF4FF0FF31FD
:100290004FF0FF3000F088B9ADF1080C6DE904CEE5
:1002A00000F006F8DDF804E0DDE9022304B0704751
:1002B0002DE9F047089D8E4604468846002B4AD11A
:1002C0008A42174662D9B2FA82F64EB1C6F12003CD
:1002D00001FA06F820FA03F3B74043EA0808B440ED
:1002E0004FEA174E1FFA87FCB8FBFEF1230C0EFBFA
:1002F000118843EA084301FB0CF29A4209D9FB1822
:1003000001F1FF3080F0EA809A4240F2E780023942
:100310003B449A1AA3B2B2FBFEF00EFB102243EA52
:10032000024300FB0CFC9C4509D9FB1800F1FF328D
:1003300080F0D6809C4540F2D3803B44023840EAAE
:100340000140A3EB0C0300211DB1F3400022C5E9DD
:100350000032BDE8F0878B4205D90DB1C5E9000137
:1003600000210846F5E7B3FA83F1002946D1734529
:1003700002D3824200F20581841A6EEB030201204F
:100380009046002DE5D0C5E90048E2E7002A00F0DC
:100390009080B2FA82F6002E40F0A4808A1A030CF4
:1003A0004FEA174E80B2BCB20121B2FBFEFC0EFB3D
:1003B0001C2243EA024304FB0CF29A4207D9FB18C1
:1003C0000CF1FF3802D29A4200F2E080C4469B1A38
:1003D000B3FBFEF20EFB123340EA034302FB04F4CC
:1003E0009C4207D9FB1802F1FF3002D29C4200F276
:1003F000CA8002461B1B42EA0C40A5E7C1F1200659
:100400008B4022FA06F71F430EFA01F420FA06F396
:100410002EFA06FE4FEA1749234300FA01F81FFAA5
:1004200087FCBEFBF9F01C0C09FB10EE44EA0E44FD
:1004300000FB0CFEA64502FA01F209D93C1900F1B5
:10044000FF3A80F09C80A64540F2998002383C44F7
:10045000A4EB0E041FFA83FEB4FBF9F309FB13446B
:100460004EEA044403FB0CFCA44508D93C1903F1F3
:10047000FF3E80F08280A4457FD9023B3C4443EAA2
:100480000040A4EB0C04A0FB02EC64457346E1467B
:1004900062D35FD05DB1B8EB030264EB090404FAE8
:1004A00006F622FA01F31E43CC40C5E900640021A0
:1004B0004FE7B1FBF2FC010C41EA0E4180B240EA89
:1004C00001423B4638463C46B846BE462026B1FB74
:1004D000F7F1A2EB080241EA0C4166E7014618E792
:1004E00010462CE7C6F120022EFA02F3B740B140C5
:1004F00020FA02F24FEA174E0A43B3FBFEF8BCB2F1
:100500000EFB1833110C41EA034108FB04F9B0401B
:1005100089454FEA104380B23ED9791808F1FF3C73
:1005200001D289451FD8A1EB0901B1FBFEF909FBF6
:1005300004F80EFB191192B242EA0142424529D257
:10054000BA1809F1FF31C4D24245C2D2A9F1020161
:100550003A44BEE7F0459DD2BEEB02036CEB070CBC
:100560000138E14696E7A7EB09094944A8F1020CD6
:10057000B1FBFEF909FB04F8DBE773467FE7504661
:1005800066E70846FDE63B44023A33E7ACF1020C6D
:100590003B441CE749469CE7A1EB0901C446B1FB7B
:1005A000FEF909FB04F8C4E7704700BF0000000033
:1005B00030B51F4B026889B000249A42CDE902444D
:1005C000CDE90444069401D009B030BD03F5EA3307
:1005D00000941A6C174842F000721A641A6C02F008
:1005E00000720092009A01941A6B42F008021A639A
:1005F0001B6B9FED0D7B03F00803019302A90923F8
:100600000322CDE905238DED027B019D01F098FDCC
:1006100022462146142001F019FB142001F052FB60
:1006200009B030BDAFF300800300000002000000FD
:1006300000640040000C024008B502680A4B9A4270
:1006400000D008BD094A0A48136C23F000731364F4
:10065000032101F091FE142001F042FBBDE80840A7
:10066000152001F03DBB00BF00640040003802408F
:10067000000C024038B5134D134C2B462246002186
:1006800001F0E0F8E8B9114B20695B6A6361A91FCA
:1006900003221BBA05F8062CD4E90052C1F80E302B
:1006A000A368002B08BF2A4603F00F0343EA001398
:1006B00012BA4B70C1F80220BDE83840044800F07F
:1006C000FDBD38BD5643002070430020000C0040A3
:1006D0004C03002070B500F5804402462578607810
:1006E00085422CD094F801E0164802EB4E1C4FEAEC
:1006F0004E1EDCF80C6052F80E50DCF804E0DCF81A
:1007000008208A60CE600D60C1F804E0DCF8182093
:10071000DCF81050DCF814E0DCF81C60CE618A6173
:100720000D61C1F814E0202205F0E0FB28B96378E0
:1007300001200344DBB2637070BD022070BD002055
:1007400070BD00BF648B002010B582B000240F4B39
:100750000194196B41F4001119631B6B03F400132E
:100760002246012101930B20019B01F06FFA0B201F
:1007700001F0A8FA224601212F2001F067FA2F206C
:1007800002B0BDE8104001F09DBA00BF0038024041
:1007900010B500228CB0CDE90622CDE90822234B0A
:1007A00001920A92196B224C41F080011963196B76
:1007B00001F08001019101990292196B41F0010150
:1007C0001963196B01F00101029102990392196BEF
:1007D00041F004011963196B01F0040103910399BD
:1007E0000492196B41F008011963196B01F00801BB
:1007F000049104990592196B41F0020119631B6B76
:1008000003F0020305932046C021059B01F06EFE14
:10081000C0220123CDE9062306A900220023204699
:10082000CDE9082301F08CFC0CB010BD003802406B
:100830000000024010B50B480B4C0C4900234FF44C
:100840008042C0E90041C0E90233C0E90423C0E9A5
:100850000633036201F04EFE00B910BDBDE8104042
:1008600000F0BAB89043002000540040801A0600FF
:1008700030B5184B026889B000249A42CDE9024491
:10088000CDE90444069401D009B030BD124D009466
:100890002B6B43F002032B632B6B03F002030093DB
:1008A000C0221223CDE9022300980C48032204231E
:1008B00002A9CDE9052301F043FC01942B6C43F41C
:1008C00000132B642B6C03F400130193019B09B0FC
:1008D00030BD00BF00540040003802400004024018
:1008E00030B5002395B0CDE90A33CDE90C33CDE91D
:1008F0000333CDE90533214901930793086C204A5E
:1009000040F080500864096C01F080510191019918
:100910000293136843F480431360136801204FF47B
:10092000803103F48043CDE9080102934FF4800144
:100930000224CDE90E41029807210220CDE91201DF
:100940000422A82308A81092119302F043FC08B1D6
:1009500072B6FEE70F220346CDE903244FF4A055FB
:100960004FF4805203A80521CDE90535079202F026
:1009700047FE08B172B6FEE715B030BD0038024040
:100980000070004008B500F049FDFFF7A9FFFFF730
:10099000FFFEFFF7D9FE00F0E5FA00F007FAFFF7D7
:1009A00049FF00F0ABF800F0E5F800F01DF900F0A9
:1009B00055F904F0CFFA0548054D064C02F02EFF1C
:1009C00029462046FFF786FEFAE700BF5044002084
:1009D000E44300204C03002072B6FEE782B00C4BCB
:1009E000002100915A6C42F480425A645A6C02F41D
:1009F00080420092009A01911A6C42F080521A646F
:100A00001B6C03F080530193019B02B0704700BF41
:100A100000380240FEE700BFFEE700BFFEE700BF70
:100A2000FEE700BFFEE700BF704700BF704700BF92
:100A3000704700BF00F00CBD014801F0ABBA00BF29
:100A400028450020014800F0ABBF00BF2403002070
:100A5000014800F0A5BF00BF24030020014802F0B8
:100A6000E1BF00BFE0440020014802F0DBBF00BF4F
:100A700098440020014802F0D5BF00BF5044002038
:100A8000014801F087BA00BF88450020014803F003
:100A90002FBB00BFE8450020014801F081BE00BF28
:100AA000304600200C490D4A0B6810B50C4C121B47
:100AB0002BB11844904207D80860184610BD094B66
:100AC0000B6018449042F7D906F01AF80C23036023
:100AD0004FF0FF33184610BD0444002000000220F0
:100AE00000040000F0A50020034AD2F8883043F447
:100AF0007003C2F88830704700ED00E000B51B4875
:100B00001B4A87B00260A7220023426040F2E7320E
:100B1000CDE90233CDE90433CDE90033C0E9023237
:100B2000C0E90433836103F089F898B94FF4805326
:100B30000E48029302A902F0C3FE98B900220023D6
:100B40000A486946CDE9002303F0A6F828B907B0A2
:100B50005DF804FBFFF740FFE8E7FFF73DFF07B054
:100B60005DF804FBFFF738FFE8E700BFE044002032
:100B70000000014000B51B484FF0804287B0026082
:100B800053220023426040F6B832CDE90233CDE96A
:100B90000433CDE90033C0E902320361836103F01D
:100BA0004DF898B94FF480530E48029302A902F011
:100BB00087FE98B9002200230A486946CDE9002340
:100BC00003F06AF828B907B05DF804FBFFF704FFEB
:100BD000E8E7FFF701FF07B05DF804FBFFF7FCFE55
:100BE000E8E700BF9844002000B51A481A4A87B0C9
:100BF00002605322002342604FF47572CDE9023344
:100C0000CDE90433CDE90033C0E9023203618361E9
:100C100003F014F898B94FF480530E48029302A9D8
:100C200002F04EFE98B9002200230A486946CDE939
:100C3000002303F031F828B907B05DF804FBFFF793
:100C4000CBFEE8E7FFF7C8FE07B05DF804FBFFF74F
:100C5000C3FEE8E7504400200008004000B51B48F0
:100C60001B4A87B0026042F2CF02002342604FF07D
:100C7000FF32CDE90233CDE90433CDE90033C0E9D9
:100C800002320361836102F0D9FF98B94FF48053B7
:100C90000E48029302A902F013FE98B90022002325
:100CA0000A486946CDE9002302F0F6FF28B907B0EB
:100CB0005DF804FBFFF790FEE8E7FFF78DFE07B055
:100CC0005DF804FBFFF788FEE8E700BF084400205A
:100CD000000C004000B5314A0368934285B01AD039
:100CE000B3F1804F2DD02E4A934240D02D4A9342EB
:100CF00002D005B05DF804FB2B4B002203921A6C66
:100D000042F008021A641B6C03F008030393039B70
:100D100005B05DF804FB244B00220092596C41F0B1
:100D2000010159645B6C01210B40009302221920E0
:100D3000009B00F08BFF192005B05DF804EB00F07C
:100D4000C1BF03F50E3300220192196C0122114339
:100D500019641B6C1340019311461C20019B00F089
:100D600075FF1C2005B05DF804EB00F0ABBF00225E
:100D70000D4B0292196C41F0040119641B6C03F0D5
:100D80000403029311461E20029B00F05FFF1E2009
:100D900005B05DF804EB00F095BF00BF0000014016
:100DA00000080040000C00400038024010B50B481D
:100DB0000B4C00234FF4E1310C22C0E90041C0E9A3
:100DC0000233C0E90432C0E9063303F03FF800B94A
:100DD00010BDBDE81040FFF7FFBD00BFE845002093
:100DE00000500040F0B5444B02688BB000249A429A
:100DF000CDE90444CDE90644089401D00BB0F0BD20
:100E000003F5F43301941A6C42F480121A641A6CDC
:100E100002F480120192019A02941A6B42F00402C9
:100E20001A631A6B02F004020292029A03941A6B7C
:100E300042F008021A631B6B03F0080303934FF49C
:100E4000805208260223032704A905462B48CDE932
:100E50000423CDE90776039B01F072F904220223F3
:100E60002748089604A9274E0797CDE9042306943E
:100E700001F066F9244A74624FF00063C6E900236A
:100E80004FF480634022336130464FF40033C6E9AB
:100E90000224C6E90544C6E9074300F04DFF20BB24
:100EA0001A4C1B4A22604FF000620023AE6362605E
:100EB0004FF480614FF400322046C4E90233C4E9A4
:100EC0000413C4E90633B5632262636200F034FFA1
:100ED00070B901220021EC633520A56300F0B6FE55
:100EE000352000F0EFFE0BB0F0BDFFF775FDD7E742
:100EF000FFF772FDEDE700BF005000400008024020
:100F0000000C024088450020B860024028450020BF
:100F1000106002400F4B02689A4200D070470E4AA0
:100F2000136C10B523F48013044613640B484FF47C
:100F3000805101F021FA0421094801F01DFAA06B4B
:100F400000F08EFFE06B00F08BFFBDE81040352015
:100F500000F0C6BE005000400038024000080240C9
:100F6000000C02400B48042310B54FF400714FF001
:100F7000A0440222037100230460C180C0F809204C
:100F8000C38101F07FFB00B910BDBDE81040FFF741
:100F900023BD00BF3046002030B5036889B000246F
:100FA000B3F1A04FCDE90244CDE90444069401D049
:100FB00009B030BD174D00942B6B43F001032B6338
:100FC0002B6B03F0010300934FF4C0520223CDE9D1
:100FD00002230098104802A903220A23CDE9052321
:100FE00001F0AEF86B6B43F080036B6301946B6CA4
:100FF00043F480436B646B6C03F48043012122460D
:1010000001934320019B00F021FE432000F05AFE93
:1010100009B030BD00380240000002402DE9F84F11
:1010200000262DED048B8046DFED338A9FED339A49
:101030009FED338A0F461546B146B346B2460824A3
:1010400002E001341A2C49D002F07EFBB0FBF7F02D
:10105000B0FBF4F304FB13000028F2D102F074FBA0
:101060000121F7EE005AB0FBF7F0B0FBF4F00122DB
:1010700006EE101A11445318A34227D1B8EEC67ACF
:1010800007EE904A37EE257AF8EEE77AC7EE276A40
:1010900066EE887AFCEEE77A17EE903A9BB25B1B1D
:1010A00007EE903AF8EEE77A87EE887AF0EEC77AA4
:1010B000F4EEE87AF1EE10FA08D516EE106AF0EECA
:1010C000678AB0EE669A9146A34682460132092AA3
:1010D000D1D11129CBD101341A2CB5D188ED049A84
:1010E000C8ED058ABDEC048B4046C8E900BAC8E9E2
:1010F0000269BDE8F88F00BFFFFF7F7F000000009E
:1011000000007A4410B5B0F80130B0F80320124C5A
:1011100086B04FF47A7103FB01F16846FFF77EFF5A
:10112000DDE902230D48013A013B0460019C0021E6
:1011300012041B05C0E90141C0E90312C0E90531F1
:10114000818300F0A9F910B9012006B010BDFFF7A6
:1011500043FC012006B010BD0064004024030020C1
:1011600011F00F0310B40A4C0FD0042B08BFC4E9D0
:101170000103002009092075C4E90301054B044956
:1011800005485DF8044B00F00BBBA3602060F0E75E
:10119000488B0020188B00202403002008B5D0F8CD
:1011A00001304179821D18BAFFF7DAFF012008BD2E
:1011B00038B50B1A03F1010C1CEA030F2CD141EADC
:1011C000000332BBB3F5006F26D2431E5B1AC3F394
:1011D0000A0330EA03021FD1400180B25B011446CA
:1011E0009FED177B1A4981ED047B9FED177B08600B
:1011F000012518480D62C1E9014381ED067BCA60F3
:1012000000F0CAF9BDE83840124848F20B0100F07E
:101210009DBBB3F1005F00D338BD431E5B1A23F0C2
:10122000604330EA0302F7D1C400DA00A4B292B2FC
:10123000C0F34F3044F004045B0B42F00402CFE7EC
:10124000000000000000000000000000010000009D
:10125000208B00202403002008B54279D0F80A1022
:10126000D0F80600FFF7A4FF012008BD10B54378B1
:101270005BB9104802F0BEFA0F4800F07BFAA8B93B
:101280000D4800F047FA012010BD0446094802F05D
:101290007BFA0028F7D12046FFF734FF2046FFF7FE
:1012A000DBFF054800F008FA012010BDFFF794FBB2
:1012B000E6E700BF084400202403002000F5804C2E
:1012C0009CF800209CF801300132D2B293421DD02C
:1012D000F0B59CF800300D684C68D1F808E0CE6895
:1012E0005F0100EB4313C5515C60C3F808E0DE60AA
:1012F0000D694C69D1F818E0CE69DE611D615C6151
:10130000C3F818E08CF800200120F0BD00207047E1
:1013100010B500F5804488B0227863789A4229D0CD
:10132000637800EB431E5B01DEF80410C058DEF862
:101330000820DEF80C30EC46ACE80F00DEF81000B8
:10134000DEF81820DEF81C30DEF81410ACE80F00D0
:101350000A4B9DF80020684653F82230984730B178
:10136000637801200344DBB2637008B010BD022033
:1013700008B010BD002008B010BD00BF0400002060
:10138000DFF834D0FFF7B0FB0C480D490D4A0023BD
:1013900002E0D458C4500433C4188C42F9D30A4A2A
:1013A0000A4C002301E013600432A242FBD305F093
:1013B000ADFBFFF7E7FA70470000022000000020B5
:1013C00004030020C474000808030020ECA50020DA
:1013D000FEE7000038B50E4A0E4B12780546186835
:1013E0004FF47A73B3FBF2F3B0FBF3F000F08AFC36
:1013F00008B90F2D01D9012038BD044602462946FF
:101400004FF0FF3000F022FC034B20461D6038BD3A
:1014100010000020000000201400002008B50B4B35
:101420001A6842F400721A601A6842F480621A6004
:101430001A6842F480721A60032000F0F5FB0F2056
:10144000FFF7C8FFFFF7CAFA002008BD003C0240C2
:10145000034A044B11681B780B441360704700BFAC
:10146000608B002010000020014B1868704700BFFF
:10147000608B002038B50446FFF7F6FF631C054675
:1014800002D0044B1B781C44FFF7EEFF401BA04228
:10149000FAD338BD1000002000287BD038B590F872
:1014A00020300446002B72D02268136843F00103F9
:1014B0001360FFF7D9FF054604E0FFF7D5FF401B97
:1014C0000A285BD823685A68D107F6D51A6822F033
:1014D00002021A60FFF7C8FF054604E0FFF7C4FFE9
:1014E000401B0A284AD823685A689207F6D4227EFD
:1014F000012A1A680CBF42F0800222F080021A60B2
:10150000627E012A1A680CBF42F0400222F04002BB
:101510001A60A27E012A1A680CBF42F0200222F053
:1015200020021A60E27E012A1A680CBF22F0100223
:1015300042F010021A60227F012A1A680CBF42F0A2
:10154000080222F008021A60627F012A1A680CBFA2
:1015500042F0040222F004021A60D4E90220216958
:1015600002430A4360696168024301390A4300206B
:101570000121DA61606284F8201038BD636A0522B7
:1015800043F40033636284F82020012038BDFFF764
:101590000FF889E70120704790F82020013A012ACE
:1015A00006D9426A034642F4802201205A627047FB
:1015B000404BD3F800220120024330B4C3F800228C
:1015C000D3F8002222F47C52C3F80022D3F8002280
:1015D0004C6A42EA0422C3F800224A6902F01F045E
:1015E000A040D3F81C4224EA0004C3F81C42CD6991
:1015F000C443002D45D1D3F80C522540C3F80C52FA
:10160000D200CD688B8802F1804202F5C84243EADD
:101610000543C2F840328D680B8843EA0543C2F89F
:1016200044328B69234A33BBD2F804322340C2F8D8
:1016300004320B69C3B91F4BD3F814221440C3F80A
:1016400014420B6A012B05D11A4AD2F81C3203430B
:10165000C2F81C32174AD2F8003223F001030020EE
:1016600030BCC2F800327047124AD2F81432034339
:10167000C2F81432E5E7D2F804320343C2F8043268
:10168000D7E7012DCDD1D3F80C520543C3F80C5246
:10169000D2000D688B8802F1804202F5C84243EA0D
:1016A0000543C2F840328D688B8943EA0543C2F88E
:1016B0004432B6E70064004038B590F82030012B82
:1016C000044605D0436A43F400234362012038BD39
:1016D0000268022380F82030136823F001031360AE
:1016E000FFF7C2FE054604E0FFF7BEFE431B0A2BD0
:1016F00007D823685B6813F00103F5D163621846CD
:1017000038BD636A052243F40033636284F8202005
:10171000DCE700BF38B590F82030022B044605D036
:10172000436A43F480134362012038BD02681368A2
:1017300043F001031360FFF797FE054604E0FFF74F
:1017400093FE431B0A2B0CD823685A68D207F6D5A0
:101750001A68012122F002021A6084F82010002089
:1017600038BD636A052243F40033636284F82020A5
:10177000DAE700BF88B110B50446FFF7CBFF20467B
:10178000FEF75AFF21680A68002342F400420A600B
:10179000636284F82030184610BD0120704700BFF6
:1017A00030B490F820C005680CF1FF3CBCF1010F8B
:1017B000AC6839D814F0E05F06D1436A43F40013F3
:1017C0004362012030BC7047C4F301640120A04093
:1017D00018608B686BB3C8680343486843EAC0036A
:1017E00004F1180000012B5005EB041C0B69CCF828
:1017F00084310B7D012B4FEA041105D1DCF88431D3
:1018000043F48073CCF884316B185168C3F88C11A1
:101810001268C3F88821DCF8803143F0010300200E
:1018200030BCCCF880317047436A43F48023436274
:10183000C7E7CB68086843EA405004F118031B016E
:10184000E850D1E790F820C00CF1FF3CBCF1010F4B
:101850006BD870B5046841B9E568AD0708D1436A33
:1018600043F400134362012070BD2569AE07F6D032
:1018700004EB011C4FEA011EDCF8B05105F0040531
:101880009560002D57D0DCF8B051ED085560DCF8BC
:10189000B05105F00205D560DCF8B4512D0758BFF2
:1018A000DCF8B451DCF8B46154BF05F00F0508252D
:1018B00015617444DCF8B451C6F3072696612D0C0B
:1018C000D4F8B86155611E7002687244D2F8B8212C
:1018D000120A5A7002687244D2F8B821120C9A7037
:1018E00002687244D2F8B821120EDA7002687244AB
:1018F000D2F8BC211A7102687244D2F8BC21120AD3
:101900005A7102687244D2F8BC21120C9A710268B2
:101910007244D2F8BC21120EDA71026881B9D36820
:1019200043F02003D360002070BD436A43F480235A
:10193000436201207047DCF8B0516D0D1560A6E7D9
:10194000136943F020031361EDE700BF90F82020F6
:10195000013A012A034605D9426A42F48022012055
:101960005A627047026853690B4300205361704705
:10197000704700BF704700BF704700BF704700BF8F
:10198000704700BF704700BF704700BF704700BF7F
:10199000704700BF704700BF704700BF704700BF6F
:1019A0002DE9F84F03685C69D3F804809F68D3F889
:1019B0000CB0D3F81090D3F818A014F00106054627
:1019C0001FD0F90700F189800026F9050BD52B6897
:1019D0004FF480729A60BA0500F1DB807B0540F11C
:1019E000CE8046F40056F9030BD52B684FF48032B5
:1019F0009A60BA0300F1D1807B0340F1C58046F4C0
:101A00000046210702D51BF0100F60D1620702D5F6
:101A10001BF0080F6CD1A30704D52B68DB689F0768
:101A200040F08680600602D519F0100F49D1A1065A
:101A300002D519F0080F62D1E20603D52B681B69A5
:101A40009B076AD1A70302D518F0100F69D1E003F4
:101A500002D518F0080F59D121042ED518F0040F23
:101A60002B6828D0E20544BF0AF001021643A705FF
:101A700016D51AF0020F13D0600546F0020604F4E2
:101A800000625ED51AF0040F59D18AB904225A6057
:101A90006B6A334328466B62FFF780FFBDE8F88F1F
:101AA000610504F4006202D51AF0040F47D112B1A7
:101AB0001AF0700A4AD104225A60002EE8D1BDE81B
:101AC000F88F2B68102246F480661A61AFE72B6806
:101AD000102246F40076DA6098E701229A60BA078D
:101AE0002AD47B0748D43E076AD54FF480566CE76A
:101AF0002B680822DA602846FFF746FF8BE72B6841
:101B000008221A612846FFF743FF95E72B68082251
:101B10005A602846FFF740FF9EE72846FFF736FF4A
:101B200090E72B6810225A602846FFF733FF8EE7B4
:101B30002846FEF79FFD75E7FFF71AFF44E746F0DA
:101B40000406002AA2D01AF0700A9FD0BAF1400F02
:101B500046D026D8BAF1200F5DD0BAF1300F51D05F
:101B6000BAF1100F37D19A69042122F070029A61FC
:101B700046F0080659608BE74FF4006625E7380504
:101B800025D546F480462EE738031CD546F480362A
:101B900037E72846FFF7EEFE25E72846FFF7ECFE7D
:101BA0002FE7BAF1500F24D0BAF1600F13D19A6920
:101BB000042122F070029A6146F48076596067E74A
:101BC000FFF7DCFE00E72846FFF7DCFE19E72846B2
:101BD000FFF7D6FE07E79A6922F070029A616AE77A
:101BE0009A69042122F070029A6146F04006596019
:101BF0004EE79A69042122F070029A6146F080064D
:101C0000596045E79A69042122F070029A6146F012
:101C1000200659603CE79A69042122F070029A611B
:101C200046F01006596033E70749CA6803024FF6C9
:101C3000FF0003F4E0630240134343F0BF6343F447
:101C40000033CB60704700BF00ED00E01B4BDB684A
:101C5000C3F3022300B5C3F1070EBEF1040F03F175
:101C6000040C28BF4FF0040EBCF1060F1CD9A3F1E1
:101C7000030C4FF0FF3303FA0CF322EA03024FF098
:101C8000FF3303FA0EF321EA030303FA0CF31343C1
:101C90001B010028DBB20ADB00F1604000F5614067
:101CA00080F800335DF804FB00229446E7E7044A1D
:101CB00000F00F00024413765DF804FB00ED00E035
:101CC000FCEC00E0002807DB044A4109012300F096
:101CD0001F00834042F82130704700BF00E100E060
:101CE00000280CDB4309064900F01F0020330122C5
:101CF000824041F82320BFF34F8FBFF36F8F7047AF
:101D000000E100E00138B0F1807F01D3012070478D
:101D100010B44FF0E023074C58614FF0F00C84F8FA
:101D200023C00022072110469A615DF8044B196117
:101D3000704700BF00ED00E038B50446FFF794FBA4
:101D4000002C6BD023680022022184F8351084F81F
:101D500034201A6822F0010205461A6005E0FFF7F8
:101D600083FB431B052B37D823681A68D107F6D4A9
:101D7000D4E90120E16802430A43D4E90451A0698F
:101D80002A430A43E1691D6802430A433149294055
:101D9000256A2A430A43616A042924D01A605A69D1
:101DA00022F007021143D8B22B4A59611038A2FB26
:101DB0000052120929496FF30903895CE1655F2824
:101DC00088BF04333F228A40A36500209A60012324
:101DD000606584F8353038BD03232022626584F8BD
:101DE0003530184638BDD4E90B51294311431960E9
:101DF0005969A26A21F00701114341F00401002D45
:101E0000D1D068B9012A21D032F00202CBD1EA0147
:101E1000C9D540220123626584F83530012038BDE0
:101E2000B0F5005F04D0022AF3D9032AEFD0BAE755
:101E3000032AB8D801A050F822F000BF131E0008F2
:101E40000F1E0008131E00084D1E0008B5F1C07FCC
:101E5000A9D1DEE73F8010F0ABAAAAAA1C74000843
:101E6000002835D090F83520022A0346D0B22ED073
:101E70001A681849D0B2103830B4A1FB00410909E2
:101E80001468154D24F001046D5C1460002111608C
:101E900051609160D1601161212151615F286FF320
:101EA000090288BF04323F240021AC40DD65C3E94C
:101EB0000F11C3E91111C3E913119A6594605965B3
:101EC00083F8341083F83510084630BC70477047EB
:101ED00001207047ABAAAAAA1C74000870B504467A
:101EE000866DFFF7C1FA94F83530022B06D08023B7
:101EF0006365002384F83430012070BD23681A68BC
:101F000022F016021A605A6922F080025A61226C8D
:101F1000054642B31A6822F008021A601A6822F0D5
:101F200001021A6005E0FFF79FFA431B052B10D84A
:101F300023681B6813F00103F5D1E16D3F228A404D
:101F4000184601210023B26084F8351084F834303B
:101F500070BD032320226265184684F835300023C3
:101F600084F8343070BDA26C002AD3D1D6E700BF0C
:101F700090F83530022B03D0802343650120704751
:101F80000268052380F83530136823F00103002030
:101F900013607047F0B583B0674A876D16680023F9
:101FA0000193C36D3D6808229A402A42044603D03B
:101FB00001680868400778D401229A402A4203D079
:101FC0002168496908066AD404229A402A4203D04B
:101FD0002168096889075CD410229A402A4203D0FC
:101FE00021680868000741D420229A402A4214D070
:101FF00021680868C00610D5BA6094F83520052A13
:1020000063D00B6813F4802F0B687ED0190340F166
:102010008980E36B0BB120469847636D23B3636DF2
:10202000DA071AD522684549052384F83530136844
:10203000A1FB061623F00103B60A136002E0136841
:10204000DB0704D5019B0133B3420193F7D9012289
:10205000002384F8352084F83430E36C23B1204623
:1020600003B0BDE8F040184703B0F0BDBA600A689D
:1020700012F4802F0A6822D1D20503D40A6822F014
:1020800008020A60226C002AAED020469047E36D19
:10209000AAE7BA60626D42F0040262659CE7BA602A
:1020A000626D42F0020262658EE7086820F004006B
:1020B0000860BA60626D42F0010262657CE711035C
:1020C000E0D5A26C002AE0D18EE70A6822F0160261
:1020D0000A604A6922F080024A61226C3AB30A68B7
:1020E00022F008020A603F2202FA03F3216DBB606E
:1020F0000122002384F8352084F834300029B3D03D
:10210000204603B0BDE8F040084713F4807380D147
:102110000A6822F010020A60012284F8352084F84F
:10212000343076E7636C002B7FF475AF75E7A26CF3
:10213000002AD4D1D7E700BF00000020B5814E1B94
:102140002DE9F04F00230C68DFF814A285B04FF0A2
:10215000010B894603E00133102B00F092800BFA4B
:1021600003F202EA0408A243F5D1D9F8041001F001
:10217000030C5A0003250CF1FF369540012E6FEA3F
:10218000050540F28180BCF1030F40F0D98006685C
:102190000CFA02F235402A4311F4403F0260DAD0D3
:1021A00000220392DAF8442042F48042CAF8442024
:1021B000DAF8442002F480420392039A23F00302E7
:1021C00002F1804203F003060F2702F59C32B600AD
:1021D00007FA06FC5F4F9568B84225EA0C0527D040
:1021E00007F58067B84200F087805B4FB84200F087
:1021F0008980DFF870C1604500F08A80DFF868C12F
:10220000604500F08B80DFF864C1604500F08C8091
:10221000DFF85CC1604500F08D80DFF858C1604593
:102220000CBF4FF0070C4FF0080C0CFA06F63543C4
:1022300095604A4A9268CE026FEA0805474E54BF3D
:102240002A4048EA0202B260F268444E8F0254BF4C
:102250002A4048EA0202F26072688E033F4E54BF81
:102260002A4048EA020272603268C90303F101039E
:102270003A4954BF2A4048EA0202102B0A607FF410
:102280006EAF05B0BDE8F08F866806EA050ED9F896
:102290000C60964046EA0E068660466826EA080EFE
:1022A000C1F300169E4046EA0E064660C66806EA7E
:1022B000050ED9F80860964046EA0E06BCF1020FFA
:1022C000C6607FF464AFDE0800EB86060196376ACD
:1022D000D9F81060009703F0070E4FEA8E0E0F2713
:1022E00006FA0EF607FA0EFE009F27EA0E0E019F71
:1022F00046EA0E063E624AE74FF0010C0CFA06F67B
:10230000354395E74FF0020C0CFA06F635438FE79C
:102310004FF0030C0CFA06F6354389E74FF0040C36
:102320000CFA06F6354383E74FF0050C0CFA06F677
:1023300035437DE74FF0060C0CFA06F6354377E798
:10234000C66806EA050ED9F80860964046EA0E0609
:10235000C6601CE70000024000080240003C01404B
:1023600000380240000C02400010024000140240FD
:1023700000180240001C02402DE9F04F0023534F8B
:1023800083B001264FF00F094FF0030A02E001333A
:10239000102B76D006FA03F232EA010402EA010CAD
:1023A000F5D123F0030505F1804503F00304A400F3
:1023B00005F59C3509FA04F80194454CD5F808E078
:1023C000A04208EA0E0E20D004F58064A0425BD043
:1023D000404CA0425CD0404CA0425FD03F4CA04259
:1023E00062D0DFF8FCB0584564D0DFF8F8B058454B
:1023F00066D0DFF8F4B0019C58450CBF4FF0070BD6
:102400004FF0080B0BFA04F400E00024A64513D1AA
:102410003C6824EA0C043C607C6824EA0C047C6080
:10242000FC6824EA0C04FC60BC6824EA0C04BC6070
:10243000AC6824EA0804AC6004685D000AFA05F59B
:102440004FEAD30C24EA050400EB8C0C046003F083
:102450000704DCF820E0A40009FA04F42EEA0404DE
:10246000CCF82040C46824EA0504C460446824EA27
:10247000020242608268013322EA0502102B826068
:1024800088D103B0BDE8F08F019C06FA04F4BDE7E3
:10249000019C4FF0020B0BFA04F4B7E7019C4FF0DC
:1024A000030B0BFA04F4B1E7019C4FF0040B0BFA99
:1024B00004F4ABE7019C4FF0050B0BFA04F4A5E71D
:1024C000019C4FF0060B0BFA04F49FE7003C01401F
:1024D0000000024000080240000C024000100240D0
:1024E0000014024000180240001C024002B9090416
:1024F00081617047002800F0B88070B590F83D30D9
:10250000044603F0FF02002B00F098802368242289
:1025100084F83D201A6822F001021A601A6842F419
:1025200000421A601A6822F400421A6001F00CF9A5
:102530004F4B65689D424FD84E4B98427CD94E4BCD
:102540006A00A3FB0035431EB3FBF2F32268516817
:1025500021F03F0141EA95415160116A4FEA954CE3
:102560000CF1010C21F03F0141EA0C011162D1692B
:1025700040F6FC70013321F44F41034221F0FF018A
:1025800061D104230B43D361D4E9073011680343BD
:1025900021F0C0010B4313609168D4E9030321F4D7
:1025A0000341034321F0FF010B439360D4E905305D
:1025B000D168034321F0FF010B43D360116800236E
:1025C00041F0010120201160236484F83D00236361
:1025D00084F83E30184670BD284B98422CD92268AA
:1025E000254B274EA3FB003C431E506820F03F00C4
:1025F00040EA9C4050604FEA9C414FF4967000FBCB
:1026000001F1A6FB0161106A890920F03F00013148
:1026100001431162D169A06821F44F4121F0FF010B
:10262000A0B905EB4505B3FBF5F30133C3F30B0389
:10263000CBB143F40043A5E7012070BD80F83C20F6
:10264000FEF716F962E7C3F30B039BE705EB85057D
:1026500005EB8505B3FBF5F30133C3F30B0313B1AE
:1026600043F440438EE701238CE70120704700BF0D
:10267000A08601007F841E0083DE1B43FF083D000F
:10268000D34D621070B582B000B390F895340568F0
:10269000044603F0FF02002B5AD028460323B5F16D
:1026A000A04F84F8953404BF0023A37101F0AEFF5E
:1026B000237C8DF80030251D95E80E00206801F080
:1026C000DBFE014630B1022384F89534012528460B
:1026D00002B070BD206801F0A1FF01460028F2D1D0
:1026E000267906B3234622464FF0010C1175D18599
:1026F0000131B142C2E9070082F815C0107642F8F4
:10270000240FF3D100210A4683F854120131B1425B
:10271000C3E9972283F8552283F85822C3F864222C
:1027200003F12403F0D1207C95E80E008DF8000021
:10273000206801F0F9FF05460028C4D10123607428
:10274000206884F8953402F08BFB284602B070BDF7
:1027500080F89424FEF720FC20689FE710B590F8DD
:102760009434012B0446006817D0012384F8943474
:10277000C3685B0602D5637B012B09D001F03EFFE5
:10278000206802F05DFB002384F89434184610BDE5
:10279000836B43F480338363F0E7022010BD00BFF6
:1027A0002DE9F04F066889B00446304602F096FBEA
:1027B00010B109B0BDE8F08F0546206802F060FB5B
:1027C0000028F6D0D6F808382068C3F30D23C4F8E3
:1027D000D43406F50063039302F052FB10F0020FAD
:1027E00020681EBF436903F00203436102F048FB07
:1027F00010F0100F206814D0836923F01003836158
:10280000376A07F4F013B3F5802F07F00F0800F0D4
:10281000BB82B3F5402F00F06282836943F010035E
:10282000836102F02DFB10F4002F206840F0F68148
:1028300002F026FB470300F15181206802F020FBE3
:102840000028C0F2C280206802F01AFB02057ED484
:10285000206802F015FBC70400F1E180206802F057
:102860000FFB10F4005F206840F0C28002F008FB0C
:10287000000700F12A81206802F002FB01061DD545
:10288000B36923F08003B3612379012B16D927465E
:10289000012504E00135AB4207F124070ED997F872
:1028A0007B22012AF6D105EBC50104EB81012068EA
:1028B00001F5157102F0D6F92379EBE7206802F0F3
:1028C000DFFAC20241D52379012B20D906F512681F
:1028D0002746012506E00135AB4208F1200807F143
:1028E000240714D997F83C20D8F80010012AF2D117
:1028F0000029F0DA242305F00F0103FB01412068D1
:1029000087F83B20143102F0ADF92379E3E7206822
:10291000436903F48013436102F0B2FA830221D4C5
:10292000206802F0ADFA400000F1C680206802F095
:10293000A7FA41077FF53DAF23685D686A0700F19C
:1029400044825A682A435A6033E72068E4E7039BCD
:102950009B68DB0700F135822068436903F400635C
:10296000436176E794F804C0BCF1010F27D906F55E
:1029700032622346012103E0614503F124031ED0A6
:1029800093F87C021568012801F1010102F120028F
:10299000F2D1002DF0DAD4F8D47487EA1547FF0796
:1029A000EAD483F87B02B06940F08000B0617069BE
:1029B0000506E1D4039A536843F40073536020681A
:1029C000436903F400134361ABE7039A536823F0B0
:1029D0000103536094F8CC34012B00F07981204638
:1029E00003F090FF2068436903F0004343612BE745
:1029F00002F078FA206801F071FFE071256800F0BC
:102A00009DFEE2790146284601F07EFD204603F056
:102A10004DFF2068436903F40053436126E7039A9E
:102A20002068536823F001035360102101F02EFE4B
:102A30002079D8B106F510634FF67F3199601A6896
:102A400022F400121A60C3F80812D3F8002222F40C
:102A50000012C3F80022D3F80022013542F00062D0
:102A60008542C3F8002203F12003E7D1039AD3691A
:102A700043F00113D361E37B002B40F01D81039AE7
:102A8000536943F4005343F02B035361136943F03C
:102A90000B031361D6F80038206823F4FE63C6F8F0
:102AA0000038A17904F29C4202F02CFA20684369B4
:102AB00003F480534361D2E6204603F02FFF2068E1
:102AC000436903F08043436131E7204603F0EAFEA7
:102AD0002068436903F008034361CDE6206802F0F3
:102AE000DBF981462068B9F1000F3FF4A7AECDE9CC
:102AF000046506F51067A0464FF0000A064609E097
:102B00005FEA59090AF1010A08F1240807F12007D0
:102B100000F0F88019F0010FF2D05FFA8AFB5946F5
:102B2000304602F0CBF9C107054612D503980121C2
:102B3000436B0AF00F0201FA02F223EA0203436335
:102B4000B960A179012900F045815946204603F07A
:102B50009FFE2A0744BF0823BB60EB0644BF102337
:102B6000BB606E0644BF4023BB60A80700F1018133
:102B700029062668C4D5D8E90953AB42C0D806F562
:102B80001061D8F81C00079601EB4A11A5EB030C65
:102B900084458A6928BF84461FFA82FE0CF1030C23
:102BA000BEEB9C0FC0F04D81CDF818A08A4621E005
:102BB000D8F81C30D8F820109D4228BF1D46A379B4
:102BC00000935A46ABB2304602F096F8D8F820305F
:102BD000DAF818202B44C8F82030D8F8283092B200
:102BE0002B440335B2EB950FC8F82830C0F0248190
:102BF000D8F824509D42A5EB0305D9D8DDF818A0DC
:102C00002668079B0AF00F0503F500610122D3F83F
:102C10003438AA4023EA02034B6371E702F034F927
:102C200007462068002F3FF403AE049506F5306890
:102C3000A3464FF0000A254607E07F080AF1010A83
:102C400008F120080BF1240B60D0FC07F5D55FFAE2
:102C50008AF4214602F028F910F0010F814669D16B
:102C600019F0080F55D119F0100F1CBF1022C8F829
:102C7000082019F0020F0FD07269100604D5039BCB
:102C80005A6842F480625A609BF85722012A00F089
:102C9000DC800223C8F8083019F0200F1CBF202365
:102CA000C8F8083019F4005F18BF4FF400532868C3
:102CB00018BFC8F80830C0E7039AD2F8843043F050
:102CC0000B03C2F88430536C43F00B035364E1E60A
:102CD000002184F8CC14204600F07AFA82E608221B
:102CE00004F29C41304608EBC80802F01BF804EBE4
:102CF0008802C7F30A13D2F8681220680B44C2F89E
:102D000068328AE53046059D049E97E52C46049D71
:102D10008EE529680822C8F80820086C01F53062A1
:102D20006B4902EB4A128842936866D8284603F042
:102D30009FFD98E728680122C8F80820A979D0F8F3
:102D400040E000F5306202EB4A120129936866D038
:102D500060498E4500F08180BAF1000F04D1D5F8AA
:102D60006422002A00F0A7802146284603F086FD51
:102D700076E70498514601F089FC98F81730012B4A
:102D800072D00223BB60F3E647F6F0731F423FF4B4
:102D900044AD08EBC80804EB8808C7F30A12D8F85A
:102DA00060123046174601F0BDFFD8F86032206847
:102DB0003B44C8F86032D8F868323B44C8F86832FF
:102DC0002BE5204603F086FDC6E5204603F0AAFD6C
:102DD0002368B6E5D8E907231344C8F82030BAF1D0
:102DE000000F7FF4B2AE636A002B7FF4AEAE2068B2
:102DF00004F29C4202F086F8A7E61B0444BF4FF49D
:102E000000419160284603F033FDA97901297FF440
:102E10002AAF286805F29C4202F074F823E71907EC
:102E20002AD52B498E457FF61BAF18047FF518AFC6
:102E30004FF40041916013E7DDF818A0D8F8245052
:102E40002668AB42FFF45CAEDBE6002221468BF83D
:102E50005722284603F05AFD1BE71804E8D49906C8
:102E600082D5202191607FE7002388F817305946EA
:102E7000204603F04FFD84E7990602D5202191609A
:102E8000EEE613498E4501D91B04D1D41169DBF854
:102E90007422C1F31201521ACBF86822BAF1000F62
:102EA0007FF462AFD5F8641259B1D5F860121144BD
:102EB000C5F8601258E705F29C42514602F022F82C
:102EC00052E705F29C42012102F01CF84CE700BFDA
:102ED0000A30544F0A31544F90F89424012A0DD0EF
:102EE00010B504460122006884F89424617401F04E
:102EF00097FF002384F89434184610BD02207047D1
:102F000010B501F00F0E0EEBCE0C090604464FEA89
:102F10008C0C27D40CF5157101440EEBCE0004EB9C
:102F200080004FF0000C80F855C2C2F30A028A609C
:102F30004A7881F800E00B710AB1A1F81AE0022B7F
:102F400004BF00234B7194F89434012B16D0012355
:102F500084F89434206801F0CDFC002384F8943484
:102F6000184610BD0CF1140101440EEBCE0004EB29
:102F700080004FF0010C80F815C0D6E7022010BD8C
:102F800001F00F0301F00F0210B503EBC303044679
:102F9000090602EBC2004FEA830304EB800016D45B
:102FA00003F51573E1184FF0000C80F855C20A7054
:102FB00094F89434012B15D0012384F894342068BC
:102FC00001F0E0FC002384F89434184610BD14335B
:102FD000E1184FF0010C80F815C00A7094F8943491
:102FE000012BE9D1022010BD10B501F00F0E0EEB40
:102FF000CE0C00EB8C0C1446CCF8643200238CF819
:1030000054E2CCF86022CCF868328CF855328279E0
:10301000242101FB0E01012A01F5157108BFCCF82E
:103020007042006801F010FD002010BD01F00F019A
:1030300001EBC10100EB8100D0F86802704700BFCE
:1030400010B501F00F0E0EEBCE0C00EB8C0C1446FD
:10305000CCF824300023CCF8283001238CF814E07D
:10306000CCF820208CF815308279242101FB0E0148
:103070009A4201F1140108BFCCF83040006801F019
:10308000E3FC002010BD00BF38B5037901F00F0547
:10309000AB4232D30B0604461CD401EBC1032422FD
:1030A00002FB010100EB830301F51571002283F897
:1030B000552201238B700D7094F894249A421AD0F3
:1030C000206884F8943401F051FEC5B1002084F8E2
:1030D000940438BD05EBC503242101FB050100EB79
:1030E0008303012214315A7501238B700D7094F8FB
:1030F00094249A42E4D1022038BD012038BDA17940
:10310000206804F29C4201F0FDFEDFE738B5037948
:1031100001F00F0293422ED3044602EBC20302EBEE
:10312000C20009064FEA830304EB800016D403F5BE
:103130001573E118002580F8555200258D700A702E
:1031400094F89434012B14D00123206884F894342B
:1031500001F03AFE84F89454284638BD1433E1183F
:103160000125457500258D700A7094F89434012B63
:10317000EAD1022038BD012038BD00BF10B4046878
:103180001204636A29B91A43A26200205DF8044B55
:103190007047A06A013903EB104C0AD0002303F1F9
:1031A000400004EB80000133406899420CEB104C66
:1031B000F5D1403104EB810442EA0C026260002048
:1031C0005DF8044B704700BF0368002059627047E8
:1031D000704700BF002800F0D8812DE9F041036856
:1031E000DD0782B004462FD59D498A6802F00C02A3
:1031F000042A00F0EC808A6802F00C02082A00F031
:10320000E2806368B3F5803F00F0EB80B3F5A02F58
:1032100000F07381924D2A6822F480322A602A6875
:1032200022F480222A60002B40F0E080FEF71CF997
:10323000064605E0FEF718F9801B642800F20081BD
:103240002B689F03F6D423689D0728D5844A91688C
:1032500011F00C0F00F09B80916801F00C0108291F
:1032600000F09180E368002B00F00C817D4B7C4ED8
:1032700001221A60FEF7F8F8054605E0FEF7F4F8BB
:10328000401B022800F2DC8033689F07F6D53368C4
:10329000226923F0F80343EAC203336023681A0764
:1032A0005CD45D073AD56E4A136C13F0805340F03E
:1032B00088800193136C43F080531364136C03F004
:1032C00080530193019B0125674E3368D80540F177
:1032D000A780A368012B00F0B780052B00F01D81AB
:1032E0005F4E326F22F001023267326F22F0040229
:1032F0003267002B40F0AD80FEF7B6F841F2883817
:10330000074605E0FEF7B0F8C01B404500F2988084
:10331000336F9B07F6D4002D40F0F980A369CBB141
:103320004F4DAA6802F00C02082A00F0BC80022B64
:103330004C4B4FF000021A6600F0F980FEF794F84B
:10334000044604E0FEF790F8001B022878D82B68AA
:103350009B01F7D4002002B0BDE8F0816369FBB1A6
:10336000404B3F4E0122C3F8802EFEF77DF8054604
:1033700004E0FEF779F8401B022861D8736F9B07C1
:10338000F7D523688DE7526851023FF56BAF344A99
:103390001268920738D5E268012A35D00120DAE7B1
:1033A000304A2F4EC2F8803EFEF75EF8054604E034
:1033B000FEF75AF8401B022842D8736F9F07F7D4D4
:1033C000DFE7002580E74A6851027FF51AAF244AFB
:1033D000126892037FF538AF6268002A7FF434AF39
:1033E000DCE71F4A136843F480331360FEF73CF8B0
:1033F0001B4E054604E0FEF737F8401B64281FD833
:1034000033689B03F7D51EE7154920690A6822F047
:10341000F80242EAC0020A601A077FF542AF9DE750
:10342000336843F480733360FEF71EF80746336851
:10343000D9053FF54EAFFEF717F8C01B0228F6D9A5
:10344000032002B0BDE8F081054A136F43F0010389
:103450001367FEF709F8024F064641F288380AE082
:10346000003802400000474200700040FDF7FCFFBA
:10347000801B4045E4D83B6F9A07F7D5002D3FF4F9
:103480004DAF44E0424A434E1360FDF7EDFF054661
:1034900004E0FDF7E9FF401B0228D1D83368990703
:1034A000F7D42368FBE6012B3FF478AF6B68E26941
:1034B00003F4800191427FF471AF226A03F03F016F
:1034C00091427FF46BAF616A47F6C0721A40B2EB6B
:1034D000811F7FF463AFA26A520803F44031013ABE
:1034E000B1EB024F7FF45AAFE26A03F07063B3EBC3
:1034F000026F14BF012000202DE7264B1A6842F40A
:1035000080221A601A6842F480321A606EE7214AFB
:10351000136C23F08053136400E71E4B1A6F42F0C4
:1035200004021A671A6F42F001021A6791E7FDF769
:103530009BFF064605E0FDF797FF801B02283FF63C
:103540007FAF2B689901F6D4D4E90731626A0B4347
:1035500043EA8213D4E90A2052080D4943EA006382
:10356000013A43EA024301226B600A66FDF77CFFE1
:10357000084D044605E0FDF777FF001B02283FF6E3
:103580005FAF2B689A01F6D5E4E60120704700BFD3
:103590000000474200380240164908B58B6803F026
:1035A0000C03042B1BD0082B01D0134808BD4A681C
:1035B0004B68496813F4800302F03F0211D10E48B2
:1035C000C1F38811A1FB0001FCF75AFE094B5B68AF
:1035D000C3F3014301335B00B0FBF3F008BD0748C0
:1035E00008BD0648C1F388110023A1FB0001FCF7C8
:1035F00047FEEBE7003802400024F40000127A0096
:10360000002800F08780484A136803F007038B42C4
:103610002DE9F0410D46044609D2CBB21370136870
:1036200003F007038B4202D00120BDE8F08123683C
:10363000980714D5590704D53C498A6842F4E052EA
:103640008A601A0704D539498A6842F460428A6060
:103650003649A0688A6822F0F00202438A60DF07D8
:1036600021D56268012A57D0931E012B2F4B1B686E
:103670004DD99907D8D52D4EB36823F003031343D2
:10368000B360FDF7F1FE41F28838074604E0FDF72C
:10369000EBFEC01B404544D8B368626803F00C03DE
:1036A000B3EB820FF3D1204A136803F00703AB4258
:1036B00006D9EBB21370136803F00703AB42B3D122
:1036C00023685A0706D51949E0688A6822F4E0524F
:1036D00002438A601B0707D5144A2169936823F4C3
:1036E000604343EAC1039360FFF756FF0F4A104C53
:1036F00092681049C2F303120346A25C0E48D340FD
:1037000000680B60FDF766FE0020BDE8F0819801BF
:10371000B1D489E701207047044B1B689E03AAD4EB
:1037200082E7032081E700BF003C024000380240EE
:103730000C7400080000002014000020014B1868E1
:10374000704700BF00000020044B05499B68054AF4
:103750000868C3F38223D35CD84070470038024026
:103760000000002004740008044B05499B68054ACA
:103770000868C3F34233D35CD84070470038024036
:10378000000000200474000890F83D30012B2CD17B
:103790000368174A0221934280F83D101AD0B3F112
:1037A000804F17D0A2F57C42934213D002F580627D
:1037B00093420FD002F5806293420BD002F578421B
:1037C000934207D002F57052934203D0A2F594328F
:1037D000934204D19A6802F00702062A03D01A68BD
:1037E00042F001021A60002070470120704700BFBC
:1037F000000001400368196A41F21112114208D118
:10380000196A40F24442114203D11A6822F00102BF
:103810001A60012380F83D300020704790F83D3059
:10382000012B2FD103681849022280F83D20DA6865
:103830008B4242F00102DA6019D0B3F1804F16D00A
:10384000124A934213D002F5806293420FD002F5E0
:10385000806293420BD002F57842934207D002F582
:103860007052934203D0A2F59432934204D19A68E5
:1038700002F00702062A03D01A6842F001021A6019
:103880000020704701207047000001400004004004
:103890000368DA6822F00102DA601A6A41F2111153
:1038A0000A4208D1196A40F24442114203D11A680F
:1038B00022F001021A60012380F83D300020704799
:1038C00090F83C20012A6ED00346026830B40120F3
:1038D000022483F83C0083F83D40946824F47F443C
:1038E00024F0770494600C68602C76D011D8402CBA
:1038F0005BD02ED8202C04D000F2888034F0100148
:103900001FD1916821F07001214341F007019160BE
:1039100016E0B4F5805F13D0B4F5005F33D0702C9F
:103920000FD1D1E9015094682843CD6824F47F4138
:1039300040EA052008439060916841F0770191606A
:1039400000200121002283F83D1083F83C2030BC88
:103950007047502CF5D14868CC68116A21F00A01F3
:103960000843116A21F001011162916921F0F0010F
:1039700041EA041191611062916821F0700141F0F7
:1039800057019160DCE7D1E9015094682843CD6884
:1039900024F47F4140EA052008439060916841F497
:1039A00080419160CCE7022070474868CC68116A7A
:1039B00021F00A010843116A21F0010111629169A5
:1039C00021F0F00141EA041191611062916821F047
:1039D000700141F047019160B2E74868CC68116A14
:1039E00021F0A00141EA0011106A20F010001062DD
:1039F000906920F4704040EA04309061116291684F
:103A000021F0700141F06701916099E7302C3FF49B
:103A100078AF96E7704700BF704700BF704700BFA0
:103A2000704700BF036870B5DE681D69A9070446CA
:103A300001D5B20751D4690701D572073AD42B07D3
:103A400001D5300724D4EA0601D5F30610D4E807DF
:103A500001D5F10757D42A0601D533065BD4680691
:103A600001D571065FD4AA0601D5B30642D470BD54
:103A700023686FF010021A6108222277DB6913F4C1
:103A8000407F204663D0FFF7C7FF00232377DEE7A0
:103A900023686FF008021A6104222277DB69990714
:103AA000204651D1FFF7B6FF2046FFF7B7FF0023AE
:103AB0002377C8E723686FF004021A610222227795
:103AC0009B6913F4407F20463BD1FFF7A3FF2046BC
:103AD000FFF7A4FF00232377B1E76FF002021A611A
:103AE000012202779B699B0725D0FFF795FF0023F2
:103AF0002377A0E723686FF0200220461A61BDE813
:103B0000704000F009B923686FF001021A61204685
:103B100001F0FEFB9FE723686FF080021A612046E8
:103B200000F0FCF89BE723686FF040021A61204622
:103B3000FFF776FF97E7FFF76DFF2046FFF76EFF71
:103B4000D5E7FFF769FFC5E7FFF766FFAFE7FFF7C8
:103B500061FF2046FFF762FF97E700BF70B4344E65
:103B60004A6903688D680C68B04245D0B0F1804F57
:103B700034D0A6F57C46B04230D006F58066B0421F
:103B80002CD006F58066B04228D006F57846B042C3
:103B900032D0284EB04225D006F58066B04221D002
:103BA00006F58066B0421DD0A6F59836B04233D0F7
:103BB00006F58066B04215D006F58066B04211D099
:103BC00023F08003C5621A4384620368012143F035
:103BD0000403036070BC4161026070474E6823F0CB
:103BE00070033343C968C56223F440730B4323F069
:103BF00080031A438462E8E74E6823F0700333437E
:103C0000CE68C56223F44073334323F0800384629B
:103C10001A430B690363D8E7C96823F440730B4365
:103C200023F080031A43044BDD629C62CDE700BFA2
:103C300000000140004001400018004050B310B5A2
:103C400090F83D30044603F0FF02F3B12146022311
:103C500084F83D3051F8040BFFF780FF012384F80E
:103C6000463084F83E3084F83F3084F8403084F8A1
:103C7000413084F8423084F8433084F8443084F88A
:103C8000453084F83D30002010BD80F83C20FDF721
:103C900021F8DBE70120704790F83C20012A37D05B
:103CA00003460268022030B483F83D0050680D6876
:103CB000946820F0700028435060164882421AD061
:103CC000B2F1804F17D0A0F57C40824213D000F5AE
:103CD000806082420FD000F5806082420BD000F5F8
:103CE0007840824207D000F57050824203D0A0F5A0
:103CF0009430824204D1496824F080040C439460DB
:103D00000020012283F83D2083F83C0030BC70473E
:103D10000220704700000140704700BF704700BF9D
:103D2000026802F10C0353E8003F23F4907302F1A0
:103D30000C0C4CE800310029F3D102F1140353E8D4
:103D4000003F23F0010302F1140C4CE8003100297C
:103D5000F3D1036B012B05D02022002380F84220F1
:103D60000363704702F10C0353E8003F23F0100394
:103D700002F10C0C4CE800310029F3D1ECE700BF54
:103D80000268116938B50446C068A36821F440513F
:103D900001432069116103436069D1680343E0690D
:103DA00021F4164121F00C0103430B43D360536906
:103DB000A069234923F4407303438A42536105D029
:103DC000204B9A4202D0FFF7BFFC01E0FFF7CCFC8A
:103DD000E2691921B2F5004FD4E90053A0FB0101BB
:103DE00013D09A009B0FFCF74BFA174AA2FB001363
:103DF0005B09642101FB130000013230A2FB0020AB
:103E00001B0103EB5013AB6038BDDA184FF0000311
:103E10005B41FCF735FA0C4AA2FB003149096423E7
:103E200003FB1103DB003233A2FB0323C3F3421273
:103E30001B0902EB011203F4F8731344AB6038BDA5
:103E400000100140001401401F85EB5170B310B504
:103E500090F84130044603F0FF0213B32268242394
:103E600084F84130D36823F400532046D360FFF731
:103E700087FF2368196921F490411961596921F07C
:103E80002A015961D96800224FF0200C41F40051F9
:103E9000D960626484F841C084F842C0104662630D
:103EA00010BD80F84020FCF79DFFD7E70120704748
:103EB000B8B10268242310B580F84130D36823F4E8
:103EC00000530446D360FDF725F80023636484F8AB
:103ED000403084F8413084F84230184623636363ED
:103EE00010BD0120704700BF2DE9F843044690F84B
:103EF000410020284ED1884609B1164612B901204A
:103F0000BDE8F8831F464FF000092123C4F8449010
:103F100084F84130FDF7A8FAA368A684B3F5805F62
:103F20000546E68439D0E28C236892B2AAB11A68B9
:103F3000160604D4791C1ED11A681206FCD5B8F1F5
:103F4000000F21D018F8012B5A60E28C013A92B28E
:103F5000E284E28C92B2002AE9D11A68520604D4B3
:103F6000781C20D11A685106FCD5202384F84130F2
:103F70000020BDE8F883FDF777FA401B87421BD38A
:103F8000D7B12368DA68D2E739F8022BC2F3080206
:103F90005A60DAE70220BDE8F8832369002BC2D11A
:103FA000C1469846BFE7FDF75FFA431B9F4203D324
:103FB00017B12368DA68D0E7202384F84130032062
:103FC000BDE8F88390F84230202B03D101B11AB933
:103FD000012070470220704710B4046981620023F9
:103FE000222103638285C2854364036880F84210FE
:103FF0001CB1DA6842F48072DA605A695DF8044BE9
:1040000042F001025A61DA6842F020020020DA60D0
:10401000704700BF704700BF08B5806B0023C385A1
:10402000FFF7F8FF08BD00BF704700BF90F84230AF
:10403000222B57D183680168826AB3F5805F44D030
:10404000002B4BD10369002B48D14B68DBB21370B6
:10405000826A0132C38D8262013B9BB2C385002B11
:1040600040D100B50268D16821F0200183B0D16051
:10407000D16821F48071D16051694FF0200C21F09A
:104080000101516180F842C04363016B01292AD1CB
:10409000036302F10C0353E8003F23F0100302F125
:1040A0000C0C4CE800310029F3D11368DB0606D56F
:1040B000002301931368019353680193019B818D41
:1040C000FFF7B2FF03B05DF804FB0369002BBCD11E
:1040D0004B68C3F3080322F8023BBBE74B6803F0CD
:1040E0007F03B4E7704701F02DF903B05DF804FBDE
:1040F00070B505682B68EE68696913F00F0F82B020
:1041000004462A4672D19D0602D5B10600F1C6804A
:10411000216B01290BD0180602D5310600F19480DD
:104120005B0602D5750600F1AE8002B070BDD80600
:10413000F1D5F106EFD5002301931368019353687D
:104140000193019B5169A38D4D0640F10C81E06BF9
:104150000168496889B2002900F04881994280F0DD
:104160004581E185C169B1F5807F36D002F10C034C
:1041700053E8003F23F4807302F10C0545E8003159
:104180000029F3D102F1140353E8003F23F00103A7
:1041900002F1140545E800310029F3D102F11403BE
:1041A00053E8003F23F0400302F1140545E80031D5
:1041B0000029F3D1202384F84230216302F10C035B
:1041C00053E8003F23F0100302F10C0545E80031ED
:1041D0000029F3D1FDF782FEA38D02226263E18DF7
:1041E000591A204689B2FFF71FFF9EE711F001011F
:1041F00076D116F4907F8BD0DA070AD5F00540F11E
:10420000EC80626C580742F0010262644FD50029CD
:104210006AD198075AD5190700F1A280626C002A6A
:1042200083D09A0602D5B30600F1DB806B69626C1D
:1042300003F0400302F0080253EA020620465CD174
:10424000FFF7E8FE666470E794F84130212B7FF4B5
:104250006CAFA168236AB1F5805F00F0D080591C73
:1042600021621B785360E38C013B9BB2E384002BFB
:104270007FF45BAFD36823F08003D360D36843F04F
:104280004003D36051E7D368202123F04003D3607B
:10429000204684F8411000F0C7FF46E702B0BDE8B1
:1042A0007040FFF7C3BEF005ABD45A071CD4980783
:1042B0000CD50029AFD0626C42F0040262641A0788
:1042C000ACD5626C42F008026264A7E71807A5D576
:1042D00006F020020A43F4D1636C002BA6D124E738
:1042E000DA07E0D4580738D5626C990742F0020229
:1042F0006264E0D41A07E4D490E7FFF711FD6B691C
:104300005E0626D505F1140353E8003F23F0400371
:1043100005F1140141E8003262B1226802F1140390
:1043200053E8003F23F0400302F1140040E800315D
:104330000029F3D1E06B60B1364B0365FDF718FE41
:1043400000283FF4F2AEE06B036D02B0BDE87040B0
:1043500018472046FFF75EFEE7E69907ABD4C9E7AA
:10436000B206AED4B8E7E08DE18D89B280B2002903
:104370003FF4DBAE1B1A99B200293FF4D6AE02F12E
:104380000C0353E8003F23F4907302F10C0545E859
:1043900000300028F3D102F1140353E8003F23F06A
:1043A000010302F1140545E800300028F3D1202371
:1043B00084F84230206302F10C0353E8003F23F0FD
:1043C000100302F10C0545E800300028F3D1022368
:1043D00063632046FFF728FEA7E65A073FF519AFAB
:1043E00065E72046FFF722FE25681FE799427FF424
:1043F0009CAEC369B3F5807F7FF497AEE7E7216990
:1044000000297FF42CAF33F8021BC1F3080151607F
:10441000236228E71940000882B00023019302E0DC
:104420000369002B09DB019B01330193019BB3F16D
:10443000706FF5D9032002B070470A230193019BE6
:104440002BB1019B013B0193019B002BF9D1036927
:1044500043F00103036103E0036913F0010307D094
:10446000019B01330193019BB3F1706FF4D9E1E734
:10447000184602B0704700BF84B010B50DF10C0CA7
:104480008CE80E009DF81130012B044624D1836B7B
:104490009DF8182023F480338363C36823F48403D6
:1044A00023F04003C360C368012A23F44013C360B0
:1044B00025D02046FFF7B0FF9DF80E30012B07D125
:1044C000A36843F00603A360A36843F02003A3603E
:1044D000BDE8104004B07047C36843F04003C360B8
:1044E000FFF79AFF9DF8153023B9A36B43F480338F
:1044F000A363E1E7A36B23F48033A363DCE7C36822
:1045000043F48013C360D4E7022A03460AD04FF471
:104510001051DA6822F47052DA60DA680A43002037
:10452000DA607047264A27480A44824232D9264A2E
:1045300026480A44824230D92548A1F57402A2F5E2
:10454000105282422CD92348A1F18372A2F5E7428E
:10455000824228D3204A21480A44824226D9204A4E
:1045600020480A44824224D31F4A20480A448242F7
:10457000CDD31F48A1F1B772A2F5585282421BD386
:104580001C4A1D480A4482422CBF4FF4C0514FF4CC
:10459000E051BEE74FF47051BBE74FF46051B8E70C
:1045A0004FF45051B5E74FF44051B2E74FF430515A
:1045B000AFE74FF42051ACE74FF40051A9E700BF3B
:1045C000405327FFFF340C00401E1BFF3F420F00EB
:1045D0007F4F120020D6130060B6E5FE5FE31600A1
:1045E00000D3CEFE40771B00C05BB3FEC09121001C
:1045F00020753800E05459FEE09C4100034600203D
:104600009A6842F001029A60704700BF034600209A
:104610009A6822F001029A60704700BF38B5C368FB
:10462000012923F0C0430546C36018D0A9B9C36867
:1046300043F080430C46C36001E0C82C0DD00A2033
:10464000FCF718FF6B69DB0704F10A04F5D4A4F149
:10465000C800B0FA80F0400938BD012038BDC368F9
:1046600043F000530024C36001E0C82CF5D00A20B9
:10467000FCF700FF6B69DA0704F10A04F5D5A4F131
:10468000C800B0FA80F04009E6E700BF82B000231E
:10469000019302E00369002B09DB019B01330193C5
:1046A000019BB3F1706FF5D9032002B07047890107
:1046B000002341F020010193016103E0036913F03D
:1046C000200307D0019B01330193019BB3F1706F6D
:1046D000F4D9E9E7184602B0704700BF82B0002362
:1046E000019302E00369002B09DB019B0133019375
:1046F000019BB3F1706FF5D9032002B0704700221F
:1047000010230192036103E0036913F0100307D043
:10471000019B01330193019BB3F1706FF4D9EBE777
:10472000184602B0704700BF84B0F8B507AC84E803
:104730000E0000239DF81C509DF826600446194683
:1047400003F1400204EB820201330F2B5160F7D1D9
:1047500004F50067002E40F09F807B6843F0020361
:104760007B60A36B43F40013A363A36B23F40023C8
:10477000A363A36B23F48023A3630023C4F8003E48
:104780009DF82130012B00F09780D4F8003843F0D9
:104790000303C4F8003810212046FFF777FF0146D5
:1047A0002046FFF79BFF41EA000E5FFA8EFE0022D3
:1047B000BEF1000E3A6118BF4FF0010E7A61FA6146
:1047C00005B3D4F80019002904F5106315DB0021A6
:1047D000196000204FF67F310132AA4218619960BA
:1047E00003F1200336D0D3F800C0BCF1000FEEDA9D
:1047F0004FF0904CC3F800C0EEE74FF00061C4F8F2
:104800000019E6E73B6923F480733B6100229DF8C1
:104810001E30A2616FF0804262611BB9A36943F050
:104820001003A361A2692C4B13439DF82220A361BE
:104830001AB1A36943F00803A361012E05D1A3694E
:1048400043F0804343F00403A3617046BDE8F840A1
:1048500004B07047D4F8002B002A04F5306315DB50
:104860000022002119604FF0000C4FF67F3001321A
:10487000AA42C3F810C0986003F12003C2D019689F
:104880000029EEDA4FF090411960F0E74FF0006236
:10489000C4F8002B0022E6E7A36B23F40013A36304
:1048A000A36B43F40023A3630023C4F8003E9DF8E8
:1048B0002130012B7FF469AF9DF81F3023B9D4F864
:1048C0000038C4F8003866E7D4F8003843F0010334
:1048D000C4F800385FE700BF00383C80D0F80838E3
:1048E00013F0060004D013F0020F14BF02200F20B3
:1048F000704700BF10B50A78012302F00F0E03FACB
:104900000EF391F801E0BEF1010F00F5006C00EB31
:1049100042101AD0DCF81C2042EA0343CCF81C30C9
:10492000D0F8003B1B040ED48B68D0F8004B0A79FA
:10493000C3F30A03234343EA824343F0805343F41F
:104940000043C0F8003B002010BDDCF81C402343AE
:10495000CCF81C30D0F800391C04F4D48B68D0F8A3
:1049600000490979C3F30A03234343EA814343EA35
:10497000825343F0805343F40043C0F800390020D1
:1049800010BD00BF10B40A784978012900EB42132A
:104990002CD0D3F8001B00291BDBD0F83C484FF487
:1049A000803102F00F0201FA02F224EA0204C0F898
:1049B0003C48D0F81C48224924EA0202C0F81C28CE
:1049C000D3F8002B5DF8044B11400020C3F8001B06
:1049D0007047D3F8001B41F00061C3F8001BD3F807
:1049E000001B41F08041C3F8001BD6E7D3F8001943
:1049F00000290BDAD3F8001941F00061C3F800195F
:104A0000D3F8001941F08041C3F80019D0F83C18E0
:104A100002F00F040122A24021EA0201C0F83C1872
:104A2000D0F81C48074924EA0202C0F81C28D3F831
:104A300000295DF8044B11400020C3F800197047AD
:104A40000078F3EF007833EC2DE9F0434C780E78E2
:104A50000D6991F804E0012C00EB46135BD0D3F80C
:104A6000104B6FF31204C3F8104BD3F8104B6FF3D5
:104A7000DC44C3F8104B03F5306C8C6856BB05B1B1
:104A80000C610C62DCF81050C4F312042C43CCF817
:104A90001040DCF81040012A44F40024CCF8104007
:104AA00033D0BEF1010F0CD1D0F8082812F4807F6A
:104AB000D3F8002B0CBF42F0005242F08052C3F8F2
:104AC000002BD3F8002B42F00442C3F8002B002047
:104AD000BDE8F083002DD5D0614E2544013DB5FBE6
:104AE000F4F5ADB205FB04F406EAC545DCF8106048
:104AF0000C623543CCF81050DCF81050C4F31204AB
:104B00002C43012ACCF81040CBD1CA68002AC8D067
:104B1000CCF81420C5E703F510648DB32769D1F8EC
:104B200008906FF31207276127696FF3DC4727614D
:104B3000002E4FD12769A94547F400273CBFC1F893
:104B400010904D4627612769C5F312053D43012AA0
:104B5000256123D0D3F80049BEF1010F44F004448D
:104B6000C3F800490C6958D0002CB0D0D0F83428D4
:104B700006F00F060123B3401343C0F83438A6E70C
:104B800025696FF3DC452561256945F4002525611C
:104B90002569012A6FF312052561DBD1CA6902B1CB
:104BA0006261BEF1010F0CD1D0F8082812F4807FA9
:104BB000D3F800290CBF42F0005242F08052C3F8F3
:104BC0000029D3F8002942F00442C3F8002900204C
:104BD000BDE8F083224FD4F8108009EB050C0CF1EE
:104BE000FF3CBCFBF9FC07EACC4747EA0807BEF1EB
:104BF000010F27611FFA8CFCA5D14FEA4C7C0CF009
:104C0000C047D4F810C02CF0C04CC4F810C0D4F881
:104C100010C047EA0C07276195E7D0F8085815F44B
:104C2000807FD3F800590CBF45F0005545F0805502
:104C3000C3F80059002A7FF44AAFA3B203339B089C
:104C40003FF445AFCA6800EB063606F5805602EB26
:104C5000830352F8041B31609342FAD137E700BF57
:104C60000000F81F10B44A780B7883B00021012AA5
:104C700001914FEA431323D000F53060C218C158A8
:104C8000002904DB002003B05DF8044B7047C458D2
:104C900044F00064C450C45844F08044C45042F20C
:104CA000107102E01368002BECDA019B01330193D1
:104CB000019B8B42F6D9012003B05DF8044B70478D
:104CC00000F51060C218C1580029DBDAC45844F05E
:104CD0000064C450C45844F08044C45042F210717F
:104CE00002E01368002BCDDA019B01330193019B95
:104CF0008B42F6D9DFE700BF10B49DF8044064B9D9
:104D000003339B0809D0013200EB023001EB83032F
:104D100051F8042B02608B42FAD100205DF8044B5D
:104D2000704700BF70B55FEA920E054602F00306B9
:104D30001AD000F580548C460023013322684CF8C9
:104D4000042B9E45F9D101EB8E0066B105F5805527
:104D500006442968002321FA03F200F8012BB0422F
:104D600003F10803F7D170BD0846EEE74A780B78E7
:104D7000012A00EB43100CD0D0F8002B002A00DBF6
:104D8000D3B9D0F8003B43F40013C0F8003B002037
:104D90007047D0F80029002A06DB2BB1D0F8003983
:104DA00023F08043C0F80039D0F8003943F40013F1
:104DB000C0F8003900207047D0F8003B23F0804352
:104DC000C0F8003BDDE700BF0B794A7891F800C0DE
:104DD000023B012A00EB4C10DBB211D0D0F8002BC3
:104DE000012B22F40012C0F8002B01D900207047DB
:104DF000D0F8003B43F08053C0F8003B00207047E0
:104E0000D0F80029012B22F40012C0F80029EDD8B7
:104E1000D0F8003943F08053C0F8003900207047C3
:104E2000D0F8003823F4FE63C0F80038D0F800381A
:104E3000090101F4FE611943C0F800180020704711
:104E4000D0F8002E034622F00302C3F8002ED3F858
:104E5000043800F5006123F0020300204B60704726
:104E6000D0F8002E034622F00302C3F8002ED3F838
:104E7000043800F5006143F0020300204B607047E6
:104E80004269806910407047D0F8183800F500601A
:104E9000C0691840000C7047D0F8183800F5006061
:104EA000C069184080B2704700EB411100F5006006
:104EB000D1F8082B40691040704700BFD0F8102887
:104EC000D0F8343800EB411001F00F01CB40DB018A
:104ED000D0F80809DBB2134318407047406900F06E
:104EE00001007047D0F8002903466FF30A02C3F8A7
:104EF0000029D3F8043800F5006143F480730020E2
:104F00004B60704730B4056C114CA54200F530631E
:104F100003D9D0F8004B002C16DB00241C611C695F
:104F200044F400241C611C6944F018041C611C69D1
:104F3000012944F0C0441C6106D15A61D0F8003BFD
:104F400043F08023C0F8003B002030BC704700BF16
:104F50000A30544F08B500F0D3FD1E491E48002208
:104F600001F004F898B91D491B4801F011F8B0B9D7
:104F70001B49194800F02CFCC8B91A49164800F022
:104F8000D3FFE0B9144801F01FF8F8B908BDFBF7EA
:104F900023FD1249104800F0FBFF0028E8D0FBF782
:104FA0001BFD0F490C4800F013FC0028E5D0FBF76F
:104FB00013FD0C49084800F0B7FF0028E2D0FBF7CA
:104FC0000BFD054801F000F80028DFD0BDE80840DF
:104FD000FBF702BD60000020648B00209C010020D4
:104FE000180000207C00002000207047F8B51368EE
:104FF000174606460A46DBB11248134950F82640C8
:1050000001EB063102F1FF3C651C40F82650B5F576
:10501000805F63461CF801EF01F804E034BF2C46C2
:10502000002440F826403D6802339B1AAB42EBD384
:105030000649304600F0E2FB0449304600F010FC1F
:105040000020F8BD888E00208C8E0020648B00200C
:1050500008B50B4B00280CBF18460020FEF728FFB0
:1050600058B90848FEF714FC18B90748FEF710FCB9
:1050700008B1FBF7B1FC002008BDFBF7ADFCF0E781
:10508000E8450020E044002098440020094A0A49ED
:1050900008B502EB801200F0B1FB0848FEF7BEFB3A
:1050A00018B90748FEF7BAFB08B1FBF795FC0020DA
:1050B00008BD00BFDC9E0020648B0020E04400207F
:1050C0009844002030B5051E364C18BF002485B02A
:1050D0002046FEF7EDFE00284CD1334A02EBC50115
:1050E000E8000B794979A3F10203B3FA83F35B0972
:1050F0005B030129E36052D0022944D000232361DD
:10510000002152F83530A1601BB94FF4E13342F869
:10511000353000220C21C4E905126360E2612046AB
:10512000FEF794FE00282BD12049012201EB8511C6
:105130002046FEF747FF00BB236800220192196852
:105140000191596801910199029219680291596877
:10515000029102990392196803915B680393039B80
:10516000BFF34F8F1249134B41F8252043F82520F8
:1051700005B030BDFBF730FCAFE7FBF72DFCDBE7FC
:10518000FBF72AFCD0E74FF4806310442361837956
:10519000072BB5D0082BB3D14FF48051B1E74FF4B2
:1051A000C063F2E7E8450020949E00209C9E00200A
:1051B000909E00208C9E0020202910B5034621D00F
:1051C000212901D0002010BD164951F8300010707F
:1051D00051F833404FEA142C82F801C051F83340A3
:1051E0004FEA144C82F802C001EBC30051F833308F
:1051F0001B0ED370037913714379537183799371C3
:10520000002010BD0749146841F8304001EBC0038D
:10521000117919715179597192799A71FFF752FF89
:10522000002010BD949E0020054A064B10681B68A4
:105230000549984288BF002300201360087070471A
:10524000848E0020888E0020808E00202DE9F04181
:10525000124DDFF854802968114F124E0023D8F800
:105260000040ABB98C4213D02CBF641AC1F58054F6
:10527000402C28BF40244FF0FF33A2B239443046BF
:10528000FEF732FE2B681C44B4F5805F02D22C601E
:10529000BDE8F081002129600123E0E7848E002031
:1052A0008C8E0020E8450020888E00202DE9F041FA
:1052B000134FDFF858803A68124E134D0021D8F88A
:1052C000004081B994420ED034BFC2F14004A41A08
:1052D000294600202346324400F082FA2946002065
:1052E00000F098FA08B1BDE8F0813A682244402AFB
:1052F0003A604FF0010104BF38600246DFE700BFAB
:105300008C9E00209C9E0020648B0020909E00209C
:10531000084B984206D0084B984205D0074B98425C
:1053200004D07047FFF792BFFFF7C0BF0448FBF7F8
:10533000EFBF00BF98440020E0440020504400200C
:10534000144B00200A4B1A683F2A10B408D0541C92
:1053500008491C60214401225DF8044BFEF732BE6F
:1053600000241C6003495DF8044B0122FEF72ABEAD
:10537000909E00209C9E0020122301480B807047C5
:105380004C000020042301480B8070474800002097
:1053900010B5044C04480A46214601F0FDF92046A8
:1053A00010BD00BF1C9F00202474000810B5044CE1
:1053B00004480A46214601F0EFF9204610BD00BF1F
:1053C0001C9F00202C74000810B5044C04480A46A9
:1053D000214601F0E1F9204610BD00BF1C9F0020CE
:1053E0003C74000810B5044C04480A46214601F0FC
:1053F000D3F9204610BD00BF1C9F00204C7400084C
:105400001B48D0F8103AD0F8182A10B59B184FF066
:105410001A040C8001D1174810BD164AD0F8140A9E
:1054200002F1100411464FF0000E4FEA137CB3F165
:10543000204F34BF0CF1300C0CF1370C81F802C056
:1054400081F803E002318C424FEA0313EDD10A4C9C
:105450000021030FB0F1204F34BF30333733937442
:10546000D174023294424FEA0010F2D1014810BDCB
:105470000070FF1F2C000020340000200020704727
:1054800008B501460248FBF719FF002008BD00BF20
:10549000144B00200020704738B50A4CD0F8BC32BD
:1054A00094F800120BB1FF2901D1002038BD9D688E
:1054B00094F8013222460020A847FF2384F80032E6
:1054C000002038BD1CA100204B23038000487047FA
:1054D000B00000204B23038000487047FC000020F0
:1054E0000A230380004870478401002010B5044659
:1054F00001F0CCFA064AD4F8BC32D2F80412DB68C8
:10550000C2F80C0202F5037200209847002010BD7B
:105510001CA1002001EB810C00EB8C0C38B5DCF8F1
:105520001840D0F810530B4602464CB101EBC10EA7
:1055300005EB8E05ED69B4FBF5FE05FB1E4474B169
:10554000D2F8BC220A4914690020C1F8140224B11F
:1055500001F50472D1F80812A047002038BDCCF83C
:1055600018402346224601F079FA002038BD00BFDA
:105570001CA1002070B591F800C082B04FF0000E61
:105580001CF060030C468DF805E0ADF806E005461A
:105590001DD0202B06D02846214601F0F1F803202B
:1055A00002B070BDCB88497883B31CF0800F4ED019
:1055B000D5F8BC22704696682A4AB047E288294945
:1055C000072A284628BF072201F00EF924E04B786D
:1055D0000B2BE0D801A252F823F000BF1D560008A3
:1055E0001956000897550008975500089755000868
:1055F00097550008975500089755000897550008DB
:10560000975500083B56000831560008D0F8BC22D8
:10561000184695682246A8470020C1E790F89C32BA
:10562000032BB8D102220DF1060101F0DDF8F3E7FA
:1056300090F89C32032BEFD0ADE790F89C32032B0F
:10564000A9D101220DF1050101F0CEF8E4E7054CE6
:105650001A4684F80012214684F8013201F0DAF883
:10566000DAE700BF1CA10020F8B5184E184F3178BA
:10567000044601F0AFF933783978164E03F00F0382
:1056800003EB830304EB830300259D84204601F094
:10569000A1F93B78317803F00F0303EB830304EBAC
:1056A00083032046A3F8645101F094F93378D4F8C9
:1056B000BC2203F00F0303EB830304EB83042846AF
:1056C0005368656298472846F8BD00BF4CA3002088
:1056D00048A3002044A30020F8B5364F037C397856
:1056E0000446002B4DD14FF40073022201F064F9FF
:1056F0003B78314D03F00F0303EB8303297804EB70
:10570000830201264FF400732C4F96842046022218
:1057100001F052F939782B7801F00F0203F00F03F2
:1057200003EB830302EB820204EB830304EB8202AC
:105730001020A3F86461D08408230322204601F0DE
:105740003BF93B78D4F8BC2203F00F0303EB83034F
:1057500004EB830301211268998400209047184BC1
:105760000022C3F81422C3F81822227CCAB9D3F845
:10577000042229784FF40073204601F07BF90020C1
:10578000F8BD4023022201F017F93B780A4D03F0DF
:105790000F0303EB830304EB8302297801264023E4
:1057A000B2E7D3F8042229784023204601F062F9B9
:1057B0000020F8BD4CA3002048A3002044A30020F3
:1057C0001CA100204B23038000487047B00000203C
:1057D00019B1C0F8BC12002070470320704700BF09
:1057E00005494FF4077C0CFB0010C0F80822C0F8F4
:1057F00010320020704700BF1CA10020044B4FF462
:10580000077101FB00330020C3F80422704700BF7A
:105810001CA10020104A03464FF4077000FB03222E
:1058200010B5D2F814420CB1012010BD0846012178
:10583000C2F814120949C95CD2F81032D2F8082211
:1058400001F00F0C0CEB8C0C00EB8C0CCCF818302E
:1058500001F004F9204610BD1CA100204CA300203B
:1058600010B58C460C4B0D4A9CF810404FF4077154
:1058700001FB0033115CD3F8042234B94FF40073F8
:10588000604601F0F7F8002010BD4023604601F0AB
:10589000F1F8002010BD00BF1CA1002048A300208B
:1058A00010B4134C80F846302370124B9DF804C09E
:1058B00083F800C0104B114C1970114BC172C174A8
:1058C00080F82B100F491A7080F823209DF80C30B7
:1058D00080F82C2080F836209DF8082022700B706C
:1058E0005DF8044B80F82FC0437680F83F20704766
:1058F0004CA3002044A3002040A3002048A3002084
:105900003CA3002038A3002038B5064B1B68044692
:105910000D469847044B29461B68204698470020AF
:1059200038BD00BF480100207402002038B5064B86
:105930005B6804460D469847044B29465B68204641
:105940009847002038BD00BF4801002074020020A5
:10595000054B10B51B6904469847044B20461B694C
:105960009847002010BD00BF4801002074020020AD
:1059700000207047002070476B2303800048704769
:1059800090A300206B23038000487047FCA30020F5
:105990000A2303800048704790010020154B1B78B4
:1059A0008B421DD330B5144B14461A7885B00023B2
:1059B0008A42CDE90033CDE902330D4609D10F4AC1
:1059C0001021684601F066F80D492246684600F04D
:1059D000E3FE0C4B1B78AB4204D0094805B030BD48
:1059E0000020704706490848224600F0D5FE0448CA
:1059F00005B030BD9A01002038A300206074000873
:105A000050A300209CA400207074000830B50F4DF6
:105A10000A7995F800E00E4C964524780B468446AA
:105A200001D0944206D10B4A1946BDE83040936834
:105A300060461847084B1B78934201D0032030BDC5
:105A4000064BBDE830409B68184700BF40A30020CC
:105A50003CA30020480100209DA4002074020020E7
:105A600010B5114B114C1A7894F800C002F07F0267
:105A700091420B46864603D00CF07F0C614506D15F
:105A80000B4A194670465369BDE810401847094A49
:105A9000127802F07F02914201D0032010BD064B24
:105AA000BDE810405B6918474CA3002044A30020C8
:105AB00048010020B102002074020020074B1A7830
:105AC0008A4202D1064B9B691847064A12788A42DD
:105AD00001D003207047044B9B69184748A300205E
