:020000040800F2
:1000000000000220E51B00081D0C0008250C00085C
:100010002D0C0008350C00083D0C00080000000005
:10002000000000000000000000000000450C000877
:10003000530C000800000000610C00086F0C000861
:10004000351C0008351C0008351C0008351C00084C
:10005000351C0008351C0008351C0008351C00083C
:10006000351C0008351C0008351C00087D0C0008F4
:10007000351C0008351C0008351C0008351C00081C
:10008000351C0008351C0008351C0008910C0008C0
:10009000A50C0008B90C0008CD0C0008351C0008A0
:1000A000351C0008E10C0008351C0008351C000850
:1000B000F50C0008351C0008090D0008351C000867
:1000C000351C0008351C0008351C0008351C0008CC
:1000D000351C0008351C0008351C0008351C0008BC
:1000E000351C0008351C0008351C0008351C0008AC
:1000F000351C0008351C0008351C00081D0D0008C3
:10010000351C0008351C0008351C0008351C00088B
:10011000351C0008310D0008351C0008351C00088E
:10012000351C0008351C0008351C0008351C00086B
:10013000351C0008351C0008351C0008351C00085B
:10014000351C0008351C0008351C0008450D00084A
:10015000351C0008351C0008351C0008351C00083B
:10016000351C0008351C0008351C0008351C00082B
:10017000351C0008351C0008351C00080000000074
:08018000351C0008351C0008C5
:1001900010B5054C237833B9044B13B10448AFF3C1
:1001A00000800123237010BD040300200000000024
:1001B0003CCF000808B5034B1BB103490348AFF31C
:1001C000008008BD00000000080300203CCF0008AC
:1001D00001F0FF01102A2BDB10F0070F08D010F8F8
:1001E000013B013A8B422DD010F0070F42B3F6D1FC
:1001F000F0B441EA012141EA014122F007047FF015
:1002000000070023F0E80256083C85EA010586EA6B
:10021000010685FA47F5A3FA87F586FA47F6A5FAA7
:1002200087F68EB9EED1F0BC01F0FF0102F00702B3
:1002300032B110F8013B013A83EA010313B1F8D15E
:100240000020704701387047002D06BF354603383F
:10025000073815F0010F07D1013015F4807F02BF78
:10026000013015F4C03F0130F0BC0138704700BFC9
:1002700053B94AB9002908BF00281CBF4FF0FF310D
:100280004FF0FF3000F088B9ADF1080C6DE904CEF5
:1002900000F006F8DDF804E0DDE9022304B0704761
:1002A0002DE9F047089D8E4604468846002B4AD12A
:1002B0008A42174662D9B2FA82F64EB1C6F12003DD
:1002C00001FA06F820FA03F3B74043EA0808B440FD
:1002D0004FEA174E1FFA87FCB8FBFEF1230C0EFB0A
:1002E000118843EA084301FB0CF29A4209D9FB1832
:1002F00001F1FF3080F0EA809A4240F2E780023953
:100300003B449A1AA3B2B2FBFEF00EFB102243EA62
:10031000024300FB0CFC9C4509D9FB1800F1FF329D
:1003200080F0D6809C4540F2D3803B44023840EABE
:100330000140A3EB0C0300211DB1F3400022C5E9ED
:100340000032BDE8F0878B4205D90DB1C5E9000147
:1003500000210846F5E7B3FA83F1002946D1734539
:1003600002D3824200F20581841A6EEB030201205F
:100370009046002DE5D0C5E90048E2E7002A00F0EC
:100380009080B2FA82F6002E40F0A4808A1A030C04
:100390004FEA174E80B2BCB20121B2FBFEFC0EFB4D
:1003A0001C2243EA024304FB0CF29A4207D9FB18D1
:1003B0000CF1FF3802D29A4200F2E080C4469B1A48
:1003C000B3FBFEF20EFB123340EA034302FB04F4DC
:1003D0009C4207D9FB1802F1FF3002D29C4200F286
:1003E000CA8002461B1B42EA0C40A5E7C1F1200669
:1003F0008B4022FA06F71F430EFA01F420FA06F3A7
:100400002EFA06FE4FEA1749234300FA01F81FFAB5
:1004100087FCBEFBF9F01C0C09FB10EE44EA0E440D
:1004200000FB0CFEA64502FA01F209D93C1900F1C5
:10043000FF3A80F09C80A64540F2998002383C4407
:10044000A4EB0E041FFA83FEB4FBF9F309FB13447B
:100450004EEA044403FB0CFCA44508D93C1903F103
:10046000FF3E80F08280A4457FD9023B3C4443EAB2
:100470000040A4EB0C04A0FB02EC64457346E1468B
:1004800062D35FD05DB1B8EB030264EB090404FAF8
:1004900006F622FA01F31E43CC40C5E900640021B0
:1004A0004FE7B1FBF2FC010C41EA0E4180B240EA99
:1004B00001423B4638463C46B846BE462026B1FB84
:1004C000F7F1A2EB080241EA0C4166E7014618E7A2
:1004D00010462CE7C6F120022EFA02F3B740B140D5
:1004E00020FA02F24FEA174E0A43B3FBFEF8BCB201
:1004F0000EFB1833110C41EA034108FB04F9B0402C
:1005000089454FEA104380B23ED9791808F1FF3C83
:1005100001D289451FD8A1EB0901B1FBFEF909FB06
:1005200004F80EFB191192B242EA0142424529D267
:10053000BA1809F1FF31C4D24245C2D2A9F1020171
:100540003A44BEE7F0459DD2BEEB02036CEB070CCC
:100550000138E14696E7A7EB09094944A8F1020CE6
:10056000B1FBFEF909FB04F8DBE773467FE7504671
:1005700066E70846FDE63B44023A33E7ACF1020C7D
:100580003B441CE749469CE7A1EB0901C446B1FB8B
:10059000FEF909FB04F8C4E7704700BF80B500AF5F
:1005A000174B184A1A60164B06225A60144B002249
:1005B0009A60134B0022DA60114B4FF420221A612B
:1005C0000F4B4FF480125A610D4B00221A760C4BE0
:1005D00000225A760A4B00229A76094B0022DA76DC
:1005E000074B00221A77064B00225A77044801F085
:1005F000B9FB0346002B01D000F0E2FA00BF80BD3A
:10060000200300200064004080B58AB000AF78600D
:1006100007F1140300221A605A609A60DA601A61C6
:100620007B681B68254A934243D100233B61244BDE
:100630001B6C234A43F000731364214B1B6C03F0C3
:1006400000733B613B690023FB601D4B1B6B1C4A25
:1006500043F0080313631A4B1B6B03F00803FB60A2
:10066000FB6803237B610223BB610023FB6103233F
:100670003B6209237B6207F114031946114802F01B
:100680002DFF00220221132002F009FB132002F0AB
:1006900022FB00220021142002F001FB142002F0B2
:1006A0001AFB00220221162002F0F9FA162002F0AD
:1006B00012FB00BF2837BD4680BD00BF006400406C
:1006C00000380240000C024080B582B000AF786074
:1006D0007B681B680E4A934215D10E4B1B6C0D4A6A
:1006E00023F00073136403210B4803F093F81320E5
:1006F00002F0FFFA142002F0FCFA152002F0F9FAD9
:10070000162002F0F6FA00BF0837BD4680BD00BFD4
:100710000064004000380240000C024080B584B004
:1007200000AF78602D4B2E4A0021786801F073FEEF
:100730000346002B4DD12B4B5B6A294A53612A4B50
:1007400003221A70264B1B69DBB21B01DAB2244B61
:100750009B68DBB203F00F03DBB21343DAB2224B28
:100760005A701F4B9B68002B02D11D4B1B6801E088
:100770001B4B5B68FB60FB681B0EDAB21A4B9A706E
:10078000FB681B0CDAB2184BDA70FB681B0ADAB292
:10079000154B1A71FB68DAB2134B5A71104B5B6937
:1007A0001B0EDAB2104B9A730D4B5B691B0CDAB25D
:1007B0000D4BDA730A4B5B691B0ADAB20A4B1A74E7
:1007C000074B5B69DAB2084B5A740749074801F0D6
:1007D00015F900BF1037BD4680BD00BF6A03002079
:1007E00048030020000C0040640300208403002024
:1007F00080B582B000AF786039607B6803F58043D4
:100800001B78DAB27B6803F580435B78DBB29A42EF
:1008100001D1002329E07B6803F580435B78DBB2DC
:100820005B017A6813442022194638680BF03CFFBC
:10083000202239680F480AF045F90346002B13D1EE
:100840007B6803F580435B78DBB201335A42C3F324
:100850000803C2F3080258BF5342DAB27B6803F5BB
:1008600080435A70012300E0022318460837BD4632
:1008700080BD00BF5C8B002080B582B000AF00233C
:100880007B60104B1B6B0F4A43F4001313630D4B3B
:100890001B6B03F400137B607B68002200210B209C
:1008A00002F0FDF90B2002F016FA002200212F20A1
:1008B00002F0F5F92F2002F00EFA00BF0837BD460E
:1008C00080BD00BF0038024080B58AB000AF07F19C
:1008D000140300221A605A609A60DA601A610023D9
:1008E0003B612D4B1B6B2C4A43F0800313632A4B57
:1008F0001B6B03F080033B613B690023FB60264BCD
:100900001B6B254A43F001031363234B1B6B03F05E
:100910000103FB60FB680023BB601F4B1B6B1E4A7F
:1009200043F0040313631C4B1B6B03F00403BB6015
:10093000BB6800237B60184B1B6B174A43F008030E
:100940001363154B1B6B03F008037B607B6800236C
:100950003B60114B1B6B104A43F0020313630E4BB9
:100960001B6B03F002033B603B680022C0210B4875
:1009700003F04CF8C0237B610123BB610023FB61C2
:1009800000233B6207F114031946044802F0A6FD58
:1009900000BF2837BD4680BD00380240000002403D
:1009A00080B500AF124B134A1A60114B124A5A60BD
:1009B0000F4B00229A600E4B0022DA600C4B4FF472
:1009C00080421A610A4B00225A61094B00229A6147
:1009D000074B0022DA61064B00221A62044803F03A
:1009E0002FF80346002B01D000F0EAF800BF80BDCD
:1009F0008843002000540040801A060080B58AB069
:100A000000AF786007F1140300221A605A609A6000
:100A1000DA601A617B681B68194A93422BD1002364
:100A20003B61184B1B6B174A43F002031363154BD2
:100A30001B6B03F002033B613B69C0237B61122304
:100A4000BB610023FB6103233B6204237B6207F14C
:100A5000140319460C4802F041FD0023FB60094BCA
:100A60001B6C084A43F400131364064B1B6C03F41D
:100A70000013FB60FB6800BF2837BD4680BD00BF88
:100A800000540040003802400004024080B500AF2E
:100A900001F0D2F800F02AF8FFF716FFFFF7ECFE9E
:100AA000FFF77CFD00F084FC00F04EFBFFF778FFC1
:100AB00000F09AF900F0E8F900F080FA00F030FA5E
:100AC00008F0FCF8054805F0C9F8054800F0CCFF2F
:100AD00004490548FFF78CFE00BFF6E7904400206C
:100AE000504B0020DC4300208403002080B594B0EC
:100AF00000AF07F120033022002118460BF0A0FDC3
:100B000007F10C0300221A605A609A60DA601A61D9
:100B10000023BB60284B1B6C274A43F080531364AF
:100B2000254B1B6C03F08053BB60BB6800237B60CC
:100B3000224B1B68214A43F4804313601F4B1B6800
:100B400003F480437B607B6801233B624FF4803376
:100B50007B620223BB634FF48003FB6304233B648B
:100B6000A8237B640223BB640723FB6407F12003F3
:100B7000184604F0FBFA0346002B01D000F020F8E1
:100B80000F23FB6002233B6100237B614FF4A053E2
:100B9000BB614FF48053FB6107F10C03052118463C
:100BA00004F05CFD0346002B01D000F009F800BF03
:100BB0005037BD4680BD00BF003802400070004085
:100BC00080B400AF72B600BF00BFFDE780B483B051
:100BD00000AF00237B60104B5B6C0F4A43F48043F3
:100BE00053640D4B5B6C03F480437B607B68002394
:100BF0003B60094B1B6C084A43F080531364064B5F
:100C00001B6C03F080533B603B6800BF0C37BD4654
:100C10005DF8047B704700BF0038024080B400AF2D
:100C200000BFFDE780B400AF00BFFDE780B400AFB8
:100C300000BFFDE780B400AF00BFFDE780B400AFA8
:100C400000BFFDE780B400AF00BFBD465DF8047B88
:100C5000704780B400AF00BFBD465DF8047B7047AD
:100C600080B400AF00BFBD465DF8047B704780B51F
:100C700000AF01F033F800BF80BD000080B500AFC9
:100C8000024802F0EFF900BF80BD00BFC845002058
:100C900080B500AF024801F006FD00BF80BD00BF77
:100CA0002003002080B500AF024801F0FCFC00BF2B
:100CB00080BD00BF2003002080B500AF024801F0D6
:100CC000F2FC00BF80BD00BF2003002080B500AF54
:100CD000024801F0E8FC00BF80BD00BF20030020F7
:100CE00080B500AF024805F058F800BF80BD00BFD6
:100CF0000044002080B500AF024805F04EF800BF68
:100D000080BD00BF4844002080B500AF024805F018
:100D100044F800BF80BD00BF9044002080B500AF04
:100D2000024802F09FF900BF80BD00BF6845002067
:100D300080B500AF024805F011FD00BF80BD00BFC7
:100D40002045002080B500AF024803F001F900BF44
:100D500080BD00BF2846002080B586B000AF786017
:100D6000144A154BD31A7B617B693B61134B1B689B
:100D7000002B02D1114B124A1A60104B1A687B6883
:100D800013443A699A4207D20BF062FC03460C22E4
:100D90001A604FF0FF3309E0084B1B68FB60074BFC
:100DA0001A687B681344054A1360FB6818461837B5
:100DB000BD4680BD0000022000040000FC4300206E
:100DC000E8A5002080B400AF064BD3F88830054A70
:100DD00043F47003C2F8883000BFBD465DF8047B61
:100DE000704700BF00ED00E080B586B000AF07F1AE
:100DF000080300221A605A609A60DA603B460022BB
:100E00001A605A601E4B1F4A1A601D4BA7225A6077
:100E10001B4B00229A601A4B40F2E732DA60184B03
:100E200000221A61164B00225A61154B00229A616A
:100E3000134804F033FE0346002B01D0FFF7C0FE39
:100E40004FF48053BB6007F1080319460C4805F0C6
:100E500094F80346002B01D0FFF7B2FE00233B605D
:100E600000237B603B461946054805F0B5FA03466A
:100E7000002B01D0FFF7A4FE00BF1837BD4680BD90
:100E8000004400200000014080B586B000AF07F1AB
:100E9000080300221A605A609A60DA603B4600221A
:100EA0001A605A601D4B4FF080421A601B4B532250
:100EB0005A601A4B00229A60184B40F6B832DA603A
:100EC000164B00221A61154B00229A61134804F058
:100ED000E5FD0346002B01D0FFF772FE4FF480536F
:100EE000BB6007F1080319460C4805F046F80346B5
:100EF000002B01D0FFF764FE00233B6000237B60E2
:100F00003B461946054805F067FA0346002B01D019
:100F1000FFF756FE00BF1837BD4680BD484400208D
:100F200080B586B000AF07F1080300221A605A604E
:100F30009A60DA603B4600221A605A601D4B1E4AD6
:100F40001A601C4B54225A601A4B00229A60194BAB
:100F50004FF6FF72DA60174B00221A61154B002220
:100F60009A61144804F09AFD0346002B01D0FFF764
:100F700027FE4FF48053BB6007F1080319460D4864
:100F800004F0FBFF0346002B01D0FFF719FE0023FE
:100F90003B6000237B603B461946064805F01CFA7F
:100FA0000346002B01D0FFF70BFE00BF1837BD46EC
:100FB00080BD00BF904400200008004080B586B08E
:100FC00000AF07F1080300221A605A609A60DA60E5
:100FD0003B4600221A605A601D4B1E4A1A601C4B89
:100FE00042F2CF025A601A4B00229A60184B4FF01F
:100FF000FF32DA60164B00221A61154B00229A610B
:10100000134804F04BFD0346002B01D0FFF7D8FD39
:101010004FF48053BB6007F1080319460C4804F0F5
:10102000ACFF0346002B01D0FFF7CAFD00233B6055
:1010300000237B603B461946054805F0CDF9034681
:10104000002B01D0FFF7BCFD00BF1837BD4680BDA7
:10105000D8440020000C004080B586B000AF786016
:101060007B681B68344A934216D100237B61334B63
:101070005B6C324A43F001035364304B5B6C03F00A
:1010800001037B617B6900220321192001F007FE27
:10109000192001F020FE4AE07B681B68B3F1804F05
:1010A00016D100233B61254B1B6C244A43F00103FE
:1010B0001364224B1B6C03F001033B613B6900226C
:1010C00003211C2001F0EBFD1C2001F004FE2EE0AA
:1010D0007B681B681A4A934216D10023FB60174BAA
:1010E0001B6C164A43F004031364144B1B6C03F08F
:1010F0000403FB60FB68002206211E2001F0CFFDE7
:101100001E2001F0E8FD12E07B681B680D4A934247
:101110000DD10023BB60094B1B6C084A43F0080348
:101120001364064B1B6C03F00803BB60BB6800BF75
:101130001837BD4680BD00BF0000014000380240A6
:1011400000080040000C004080B500AF114B124A6F
:101150001A60104B4FF4E1325A600E4B00229A6035
:101160000C4B0022DA600B4B00221A61094B0C2257
:101170005A61084B00229A61064B0022DA61054849
:1011800005F0BAF90346002B01D0FFF719FD00BFA7
:1011900080BD00BF204500200050004080B58AB0CF
:1011A00000AF786007F1140300221A605A609A6059
:1011B000DA601A617B681B685C4A934240F0B18038
:1011C00000233B615A4B1B6C594A43F48013136450
:1011D000574B1B6C03F480133B613B690023FB609E
:1011E000534B1B6B524A43F004031363504B1B6B6E
:1011F00003F00403FB60FB680023BB604C4B1B6BDC
:101200004B4A43F008031363494B1B6B03F008037D
:10121000BB60BB684FF480537B610223BB6100233A
:10122000FB6103233B6208237B6207F11403194629
:10123000404802F053F904237B610223BB61002381
:10124000FB6103233B6208237B6207F11403194609
:10125000394802F043F9394B394A1A60374B4FF09D
:1012600000625A60354B40229A60344B0022DA60AB
:10127000324B4FF480621A61304B00225A612F4B7F
:1012800000229A612D4B0022DA612C4B4FF4003280
:101290001A622A4B00225A62284801F045FD034693
:1012A000002B01D0FFF78CFC7B68244A9A63234A09
:1012B0007B689363234B244A1A60224B4FF00062F1
:1012C0005A60204B00229A601E4B0022DA601D4BB0
:1012D0004FF480621A611B4B00225A61194B0022A5
:1012E0009A61184B0022DA61164B4FF400321A62F1
:1012F000144B00225A62134801F016FD0346002BDE
:1013000001D0FFF75DFC7B680E4ADA630D4A7B680B
:10131000936300220221352001F0C1FC352001F049
:10132000DAFC00BF2837BD4680BD00BF005000403A
:101330000038024000080240000C024068450020CE
:10134000B8600240C84500201060024080B582B0FD
:1013500000AF78607B681B68114A93421BD1114B28
:101360001B6C104A23F4801313644FF480510E4811
:1013700002F050FA04210D4802F04CFA7B689B6B96
:10138000184601F07FFD7B68DB6B184601F07AFDA3
:10139000352001F0AEFC00BF0837BD4680BD00BF60
:1013A000005000400038024000080240000C02409B
:1013B00080B500AF144B4FF0A0421A60124B0422CC
:1013C0001A71114B0222DA710F4B00229A710E4BE7
:1013D00002225A720C4B00229A720B4B0022DA72D4
:1013E000094B00221A73084B00229A73064B002205
:1013F000DA73054802F068FC0346002B01D0FFF7C2
:10140000DFFB00BF80BD00BF2846002080B58AB04A
:1014100000AF786007F1140300221A605A609A60E6
:10142000DA601A617B681B68B3F1A04F3AD10023E0
:101430003B611E4B1B6B1D4A43F0010313631B4BA7
:101440001B6B03F001033B613B694FF4C0537B61AD
:101450000223BB610023FB6103233B620A237B62FF
:1014600007F114031946124802F038F80F4B5B6B72
:101470000E4A43F0800353630023FB600B4B5B6C0D
:101480000A4A43F480435364084B5B6C03F4804383
:10149000FB60FB6800220121432001F000FC432097
:1014A00001F019FC00BF2837BD4680BD003802405E
:1014B0000000024080B483B000AF0B4B1B685B6A36
:1014C0007B6032233B6000BF074B1B685A6A7B6816
:1014D000D31A3A689A42F7D800BF00BF0C37BD460E
:1014E0005DF8047B704700BFD844002080B582B00F
:1014F00000AF78607B6801331B78002B03D17868DC
:1015000000F028F803E0786800F006F800BF012337
:1015100018460837BD4680BD80B582B000AF786000
:101520000A4804F00BFB0346002B01D0012309E01D
:10153000786800F02BF8786800F088F8044800F02C
:101540000DFE012318460837BD4680BDD844002053
:101550002003002080B582B000AF7860094804F015
:1015600055FB094800F0F9FC0346002B01D0FFF7BA
:1015700027FB054800F036FE012318460837BD4614
:1015800080BD00BFD84400202003002080B58AB071
:1015900000AF78607B6802331B781B027A680132E7
:1015A000127813434FF47A7202FB03F37B627B6879
:1015B00004331B781BB21B021AB27B6803331B78FF
:1015C0001BB213431BB27B8407F108037A8C796A40
:1015D000184600F073F81B4B1B4A1A60FB681A464A
:1015E000184B5A60174B00229A60164B0022DA60A3
:1015F0003B69013B1B04134A13617B69013B1B05DB
:10160000104A53610F4B00221A760E4B00225A7675
:101610000C4B00229A760B4B0022DA76094B002203
:101620001A77084B00225A77064800F09BFB0346C6
:10163000002B01D0FFF7C4FA012318462837BD4616
:1016400080BD00BF200300200064004080B584B04E
:1016500000AF78607B6809331B781A067B68083313
:101660001B781B041A437B6807331B781B02134348
:101670007A68063212781343FB607B680D331B785F
:101680001A067B680C331B781B041A437B680B33E8
:101690001B781B0213437A680A3212781343BB602B
:1016A0007B6805331B781A46B968F86800F00AF9B8
:1016B000012318461037BD4680BD0000B0B592B07A
:1016C00000AFF860B9601346FB8007F114030022F5
:1016D0001A605A609A60DA601A615A61474BBB62BD
:1016E00008237B6478E004F0B1F90246BB68B2FBE2
:1016F000F3F37A6CB3FBF2F101FB02F29B1A002BBD
:1017000066D104F0A3F90246BB68B2FBF3F27B6C2E
:10171000B2FBF3F3BB6301233B6455E00123FB639E
:101720004CE03B6C5A1CFB6B13447A6C9A4241D1DF
:101730003B6C07EE903AF8EEE77AB7EE007A77EE78
:10174000876A7B6C07EE903AB8EEE77AC6EE877A46
:10175000C7ED0D7AD7ED0D7A9FED297A67EE877A7E
:10176000FCEEE77A17EE903A7B867A8EFB88D31AE6
:1017700007EE903AB8EEE77ADFED216AC7EE267AF7
:10178000F0EEE77AC7ED0B7AD7ED0A7A97ED0B7A90
:10179000B4EEE77AF1EE10FA0DD57B6C7B61BB6B92
:1017A000BB613B6CFB61FB6B3B627B6B7B62FB6AEF
:1017B000BB6200E000BFFB6B0133FB63FB6B082BDC
:1017C000AFDD3B6C01333B643B6C102BA6DD00E0CE
:1017D00000BF7B6C01337B647B6C192B83DDFB6862
:1017E0001D4607F114040FCC0FC594E8030085E8EB
:1017F0000300F8684837BD46B0BD00BFFFFF7F7FDC
:1018000000007A4480B584B000AF78607B68013313
:101810001B781A067B6802331B781B041A437B680B
:1018200003331B781B0213437A6804321278134384
:10183000FB607B68053319787B6806331A46F868C5
:1018400000F006F8012318461037BD4680BD0000A1
:1018500080B584B000AFF8600B467A60FB72FB7A0B
:1018600003F00F03002B08D0042B0DD1124B0422E0
:101870009A60114AFB68536006E00F4B00229A60A1
:101880000D4AFB68136000BF0B4B0022DA60FB7A45
:101890001B09DBB21A46084B1A61074B00221A7566
:1018A000064B7A680449064800F0E5FCFFF702FEA3
:1018B00000BF1037BD4680BD0C4B00204C4B0020B4
:1018C0002003002080B588B000AFF860B9601346EF
:1018D000FB71BA68FB68D31A0133FB61FB695A1EBE
:1018E000FB691340002B78D1FB79002B29D1FB68D1
:1018F000B3F5006F73D2BB68B3F5006F6FD2FB69AD
:101900005B42C3F30A03BB61BB69DA43FB68134064
:10191000002B66D1FB685B017B61BB695B01BB612E
:101920007B699BB21A46334B1A60324B00225A60D5
:10193000BB699BB21A462F4B9A602E4B0022DA608D
:1019400032E0FB68B3F1005F4DD2BB68B3F1005FDA
:1019500049D2FB695B4223F06043BB61BB69DA4358
:10196000FB681340002B40D1FB68DB0043F004030D
:101970007B61BB69DB0043F00403BB617B691B0C2B
:101980009BB21A461B4B1A607B699BB21A46194BD5
:101990005A60BB691B0C9BB21A46164B9A60BB6916
:1019A0009BB21A46134BDA60124B00225A61114B5C
:1019B00000229A610F4B0122DA610E4B00221A615C
:1019C0000C4B01221A620B490B4800F0E9FA48F669
:1019D0000371094800F041FE08E000BF06E000BFC7
:1019E00004E000BF02E000BF00E000BF2037BD46BA
:1019F00080BD00BF244B00202003002080B584B0B0
:101A000000AF786039607B6803F580431B78DBB2F8
:101A100001335A42C3F30803C2F3080258BF5342CA
:101A2000FB737B6803F580435B78DBB2FA7B9A42F9
:101A300001D1002313E07B6803F580431B78DBB200
:101A40005B017A6813442022396818460AF02CFE9C
:101A50007B6803F580431A46FB7B1370012318460D
:101A60001037BD4680BD0000B0B58CB000AF7860C7
:101A70007B6803F580431B78DAB27B6803F580430B
:101A80005B78DBB29A4201D1002351E07B6803F519
:101A900080435B78DBB25B017A68134407F10C0486
:101AA0001D4628686968AA68EB680FC428696969D7
:101AB000AA69EB690FC43B7B1A461F4B53F82230CF
:101AC00007F10C0210469847034687F82F301B4B4E
:101AD0001B68022B06D11A4B5B69194A83F08003FD
:101AE000536109E0154B1B68012B05D1144B5B6951
:101AF000134A83F040035361104B00221A6097F899
:101B00002F30002B13D07B6803F580435B78DBB26A
:101B100001335A42C3F30803C2F3080258BF5342C9
:101B2000DAB27B6803F580435A70012300E0022398
:101B300018463037BD46B0BD04000020548B00204D
:101B40000000024080B483B000AF7860044B0122F3
:101B50001A6000BF0C37BD465DF8047B704700BFBC
:101B6000548B002080B483B000AF7860044B012216
:101B70001A6000BF0C37BD465DF8047B704700BF9C
:101B8000548B002080B483B000AF7860044B0122F6
:101B90001A6000BF0C37BD465DF8047B704700BF7C
:101BA000548B002080B483B000AF7860044B0222D5
:101BB0001A6000BF0C37BD465DF8047B704700BF5C
:101BC000548B002080B483B000AF7860044B0222B5
:101BD0001A6000BF0C37BD465DF8047B704700BF3C
:101BE000548B0020DFF834D0FFF7ECF80C480D4997
:101BF0000D4A002302E0D458C4500433C4188C4268
:101C0000F9D30A4A0A4C002301E013600432A242CD
:101C1000FBD30AF023FDFEF739FF704700000220D6
:101C2000000000200403002014D00008040300205A
:101C3000E8A50020FEE7000080B500AF0E4B1B6852
:101C40000D4A43F4007313600B4B1B680A4A43F4BC
:101C500080631360084B1B68074A43F4807313606A
:101C6000032001F011F80F2000F008F8FEF7AEFF96
:101C70000023184680BD00BF003C024080B582B002
:101C800000AF7860124B1A68124B1B7819464FF45C
:101C90007A73B3FBF1F3B2FBF3F3184601F037F8B4
:101CA0000346002B01D001230EE07B680F2B0AD8DE
:101CB000002279684FF0FF3000F0F1FF064A7B68A0
:101CC0001360002300E0012318460837BD4680BD9D
:101CD00000000020140000201000002080B400AF9D
:101CE000064B1B781A46064B1B681344044A1360C4
:101CF00000BFBD465DF8047B704700BF14000020A4
:101D0000588B002080B400AF034B1B681846BD46BB
:101D10005DF8047B704700BF588B002080B584B00D
:101D200000AF7860FFF7EEFFB8607B68FB60FB6890
:101D3000B3F1FF3F05D00A4B1B781A46FB681344EA
:101D4000FB6000BFFFF7DEFF0246BB68D31AFA68EC
:101D50009A42F7D800BF00BF1037BD4680BD00BF14
:101D60001400002080B584B000AF78607B68002B41
:101D700001D10123EDE07B6893F82030DBB2002B2A
:101D800002D17868FEF740FC7B681B681A687B68A4
:101D90001B6842F001021A60FFF7B4FFF86012E01E
:101DA000FFF7B0FF0246FB68D31A0A2B0BD97B68FA
:101DB0005B6A43F400327B685A627B68052283F8D1
:101DC00020200123C5E07B681B685B6803F00103EA
:101DD000002BE5D07B681B681A687B681B6822F0C3
:101DE00002021A60FFF78EFFF86012E0FFF78AFF29
:101DF0000246FB68D31A0A2B0BD97B685B6A43F453
:101E000000327B685A627B68052283F82020012318
:101E10009FE07B681B685B6803F00203002BE5D141
:101E20007B681B7E012B08D17B681B681A687B6866
:101E30001B6842F080021A6007E07B681B681A6822
:101E40007B681B6822F080021A607B685B7E012B36
:101E500008D17B681B681A687B681B6842F04002E7
:101E60001A6007E07B681B681A687B681B6822F0B1
:101E700040021A607B689B7E012B08D17B681B683F
:101E80001A687B681B6842F020021A6007E07B68D2
:101E90001B681A687B681B6822F020021A607B6846
:101EA000DB7E012B08D17B681B681A687B681B6886
:101EB00022F010021A6007E07B681B681A687B68D2
:101EC0001B6842F010021A607B681B7F012B08D14F
:101ED0007B681B681A687B681B6842F008021A60FE
:101EE00007E07B681B681A687B681B6822F00802A1
:101EF0001A607B685B7F012B08D17B681B681A68BE
:101F00007B681B6842F004021A6007E07B681B686C
:101F10001A687B681B6822F004021A607B689A6862
:101F20007B68DB681A437B681B691A437B685B69C3
:101F300042EA03017B685B685A1E7B681B680A43A0
:101F4000DA617B6800225A627B68012283F82020D4
:101F5000002318461037BD4680BD80B582B000AF63
:101F600078607B68002B01D1012315E0786800F0D0
:101F700039F97868FEF7A8FB7B681B681A687B68EC
:101F80001B6842F400421A607B6800225A627B6838
:101F9000002283F82020002318460837BD4680BD64
:101FA00080B487B000AF786039607B6893F82030E8
:101FB000FB75FB7D012B03D0FB7D022B40F0BE8027
:101FC000654B3B613B69D3F8003243F001023B694A
:101FD000C3F800223B69D3F8003223F47C523B69FA
:101FE000C3F800223B69D3F800223B685B6A1B02FE
:101FF0001A433B69C3F800223B685B6903F01F0387
:10200000012202FA03F3FB603B69D3F81C22FB6850
:10201000DB431A403B69C3F81C223B68DB69002B99
:1020200023D13B69D3F80C22FB68DB431A403B69A0
:10203000C3F80C223B68DB6819043B685B689BB201
:102040003A68526919433B69483243F832103B6899
:102050009B6819043B681B689AB23B685B690A433A
:1020600039694833DB000B445A603B68DB69012B5C
:1020700022D13B69D3F80C22FB681A433B69C3F8B1
:102080000C223B681B6819043B685B689BB23A688A
:10209000526919433B69483243F832103B689B68E8
:1020A00019043B68DB689AB23B685B690A4339698B
:1020B0004833DB000B445A603B689B69002B09D115
:1020C0003B69D3F80422FB68DB431A403B69C3F841
:1020D000042207E03B69D3F80422FB681A433B69FA
:1020E000C3F804223B681B69002B09D13B69D3F874
:1020F0001422FB68DB431A403B69C3F8142207E053
:102100003B69D3F81422FB681A433B69C3F81422D5
:102110003B681B6A012B07D13B69D3F81C22FB6883
:102120001A433B69C3F81C223B69D3F8003223F001
:1021300001023B69C3F80022002306E07B685B6A6A
:1021400043F480227B685A62012318461C37BD463F
:102150005DF8047B704700BF0064004080B584B028
:1021600000AF78607B6893F82030DBB2012B2ED172
:102170007B68022283F820207B681B681A687B68D2
:102180001B6822F001021A60FFF7BCFDF86012E044
:10219000FFF7B8FD0246FB68D31A0A2B0BD97B6800
:1021A0005B6A43F400327B685A627B68052283F8DD
:1021B0002020012312E07B681B685B6803F00103A9
:1021C000002BE5D17B6800225A62002306E07B6881
:1021D0005B6A43F400227B685A6201231846103779
:1021E000BD4680BD80B584B000AF78607B6893F851
:1021F0002030DBB2022B33D17B681B681A687B6806
:102200001B6842F001021A60FFF77CFDF86012E0E3
:10221000FFF778FD0246FB68D31A0A2B0BD97B68BF
:102220005B6A43F400327B685A627B68052283F85C
:10223000202001231BE07B681B685B6803F001031F
:10224000002BE5D07B681B681A687B681B6822F04E
:1022500002021A607B68012283F82020002306E036
:102260007B685B6A43F480127B685A6201231846DC
:102270001037BD4680BD80B489B000AFF860B9604A
:102280007A603B60FB6893F82030FB77FB681B6843
:102290009B68BB61FB7F012B03D0FB7F022B40F0CF
:1022A000AD80BB6903F08063002B0AD1BB6903F0EA
:1022B0000063002B05D1BB6903F08053002B00F0B5
:1022C0009580BB691B0E03F003037B6101227B69D0
:1022D0009A403B681A60BB689B68002B0DD1BB68B5
:1022E0001B685A05BB68DB68F96809681A437B6993
:1022F00018331B010B441A600FE0BB685B68DA00FF
:10230000BB689B681A43BB68DB68F96809681A43B5
:102310007B6918331B010B441A60FB681968BB68A2
:102320001A697B6918331B010B4404331A60BB68BC
:102330001B7D012B11D1FB681A687B6918331B01C7
:10234000134404331B68FA68116843F480727B6994
:1023500018331B010B4404331A607B6807331B7866
:102360001A067B6806331B781B041A437B68053307
:102370001B781B0213437A68043212781046FA68FD
:10238000116843EA00027B691B010B4403F5C67325
:102390001A607B6803331B781A067B6802331B784C
:1023A0001B041A437B6801331B781B0213437A68B2
:1023B00012781046FA68116843EA00027B691B0133
:1023C0000B4403F5C4731A60FB681A687B69183301
:1023D0001B0113441B68FA68116843F001027B6912
:1023E00018331B010B441A6000230EE0FB685B6A84
:1023F00043F40012FB685A62012306E0FB685B6A43
:1024000043F48022FB685A62012318462437BD46F4
:102410005DF8047B704780B487B000AFF860B960A6
:102420007A603B60FB6893F82030FB75FB7D012BE5
:1024300003D0FB7D022B40F00381BB68002B0ED143
:10244000FB681B68DB6803F00303002B16D1FB68F5
:102450005B6A43F40012FB685A620123F7E0FB68F1
:102460001B681B6903F00303002B07D1FB685B6A41
:1024700043F40012FB685A620123E8E0FB681A6823
:10248000BB681B331B0113441B6803F004027B6809
:102490009A607B689B68002B0CD1FB681A68BB684C
:1024A0001B331B0113441B685B0DC3F30A027B68DB
:1024B0001A600BE0FB681A68BB681B331B011344EE
:1024C0001B68DB0823F060427B685A60FB681A686F
:1024D000BB681B331B0113441B6803F002027B68BB
:1024E000DA60FB681A68BB681B331B0113440433B2
:1024F0001B6803F00803002B03D07B6808221A61D5
:102500000BE0FB681A68BB681B331B0113440433E0
:102510001B6803F00F027B681A61FB681A68BB68CE
:102520001B331B01134404331B681B0ADAB27B689C
:102530009A61FB681A68BB681B331B0113440433A0
:102540001B681B0C9AB27B685A61FB681A68BB68EF
:102550001B01134403F5DC731B68DAB23B681A7085
:10256000FB681A68BB681B01134403F5DC731B6826
:102570001A0A3B680133D2B21A70FB681A68BB684A
:102580001B01134403F5DC731B681A0C3B68023310
:10259000D2B21A70FB681A68BB681B01134403F5BA
:1025A000DC731B681A0E3B680333D2B21A70FB68E7
:1025B0001A68BB681B01134403F5DE731A683B6895
:1025C0000433D2B21A70FB681A68BB681B0113444B
:1025D00003F5DE731B681A0A3B680533D2B21A7022
:1025E000FB681A68BB681B01134403F5DE731B68A4
:1025F0001A0C3B680633D2B21A70FB681A68BB68C3
:102600001B01134403F5DE731B681A0E3B68073386
:10261000D2B21A70BB68002B08D1FB681B68DA685D
:10262000FB681B6842F02002DA6007E0FB681B6869
:102630001A69FB681B6842F020021A61002306E059
:10264000FB685B6A43F48022FB685A6201231846E8
:102650001C37BD465DF8047B704780B485B000AF81
:10266000786039607B6893F82030FB73FB7B012B2B
:1026700002D0FB7B022B09D17B681B6859697B6800
:102680001B683A680A435A61002306E07B685B6A6C
:1026900043F480227B685A62012318461437BD46F2
:1026A0005DF8047B704780B58AB000AF7860002386
:1026B0007B627B681B685B693B627B681B685B684D
:1026C000FB617B681B689B68BB617B681B68DB6880
:1026D0007B617B681B681B693B617B681B689B692E
:1026E000FB603B6A03F00103002B7CD0BB6903F065
:1026F0000103002B23D07B681B6801229A60BB6911
:1027000003F00203002B03D07868FFF71BFA16E0F2
:10271000BB6903F00403002B04D07B6A43F400631D
:102720007B620CE0BB6903F00803002B04D07B6ADA
:1027300043F480537B6202E07868FFF733FABB69A9
:1027400003F48073002B24D07B681B684FF48072E5
:102750009A60BB6903F40073002B03D07868FFF71D
:1027600001FA16E0BB6903F48063002B04D07B6A96
:1027700043F400537B620CE0BB6903F40063002B5D
:1027800004D07B6A43F480437B6202E0786800F007
:1027900041F9BB6903F48033002B24D07B681B68AC
:1027A0004FF480329A60BB6903F40033002B03D0EE
:1027B0007868FFF7E7F916E0BB6903F48023002B84
:1027C00004D07B6A43F400437B620CE0BB6903F4F2
:1027D0000023002B04D07B6A43F480337B6202E049
:1027E000786800F021F93B6A03F00803002B0CD055
:1027F0007B6903F01003002B07D07B6A43F400735E
:102800007B627B681B681022DA603B6A03F004037A
:10281000002B0BD07B6903F00803002B06D07B68EC
:102820001B680822DA60786800F008F93B6A03F058
:102830000203002B09D07B681B68DB6803F00303ED
:10284000002B02D07868FDF769FF3B6A03F0400374
:10285000002B0CD03B6903F01003002B07D07B6AE0
:1028600043F480637B627B681B6810221A613B6AB9
:1028700003F02003002B0BD03B6903F00803002B6F
:1028800006D07B681B6808221A61786800F0EAF8B5
:102890003B6A03F01003002B09D07B681B681B699F
:1028A00003F00303002B02D0786800F0D1F83B6AF4
:1028B00003F40033002B0BD0FB6903F01003002B53
:1028C00006D07B681B6810225A60786800F0D4F844
:1028D0003B6A03F48033002B0BD0FB6903F0080341
:1028E000002B06D07B681B6808225A60786800F0CD
:1028F000CDF83B6A03F40043002B7BD0FB6903F067
:102900000403002B72D03B6A03F48073002B08D0C1
:10291000FB6803F00103002B03D07B6A43F0010343
:102920007B623B6A03F40073002B08D0FB6803F062
:102930000203002B03D07B6A43F002037B623B6AF5
:1029400003F48063002B08D0FB6803F00403002B22
:1029500003D07B6A43F004037B623B6A03F40063A9
:10296000002B43D0FB6803F07003002B3ED0FB68C4
:1029700003F07003602B2BD0602B2ED8502B22D06D
:10298000502B2AD8402B19D0402B26D8302B10D0D2
:10299000302B22D8102B02D0202B05D01DE07B6AD3
:1029A00043F008037B6219E07B6A43F010037B620B
:1029B00014E07B6A43F020037B620FE07B6A43F004
:1029C00040037B620AE07B6A43F080037B6205E0A0
:1029D0007B6A43F480737B6200E000BF7B681B6806
:1029E0009A697B681B6822F070029A617B681B6899
:1029F00004225A607B6A002B08D07B685A6A7B6A83
:102A00001A437B685A627868FFF7DCF800BF283702
:102A1000BD4680BD80B483B000AF786000BF0C3786
:102A2000BD465DF8047B704780B483B000AF78602A
:102A300000BF0C37BD465DF8047B704780B483B09F
:102A400000AF786000BF0C37BD465DF8047B70476F
:102A500080B483B000AF786000BF0C37BD465DF82E
:102A6000047B704780B483B000AF786000BF0C3740
:102A7000BD465DF8047B704780B483B000AF7860DA
:102A800000BF0C37BD465DF8047B704780B483B04F
:102A900000AF786000BF0C37BD465DF8047B70471F
:102AA00080B485B000AF78607B6803F00703FB60FB
:102AB0000C4BDB68BB60BA684FF6FF031340BB608A
:102AC000FB681A02BB68134343F0BF6343F400334F
:102AD000BB60044ABB68D36000BF1437BD465DF8D5
:102AE000047B704700ED00E080B400AF044BDB686E
:102AF0001B0A03F007031846BD465DF8047B7047C8
:102B000000ED00E080B483B000AF0346FB7197F99D
:102B10000730002B0BDBFB7903F01F02074997F905
:102B200007305B09012000FA02F241F8232000BFC0
:102B30000C37BD465DF8047B704700BF00E100E044
:102B400080B483B000AF0346FB7197F90730002BC8
:102B500012DBFB7903F01F020A4997F907305B0982
:102B6000012000FA02F2203341F82320BFF34F8FF7
:102B700000BFBFF36F8F00BF00BF0C37BD465DF8CD
:102B8000047B704700E100E080B483B000AF0346EF
:102B90003960FB7197F90730002B0ADB3B68DAB22A
:102BA0000C4997F907301201D2B20B4483F8002385
:102BB0000AE03B68DAB20849FB7903F00F03043BF3
:102BC0001201D2B20B441A7600BF0C37BD465DF835
:102BD000047B704700E100E000ED00E080B489B0C4
:102BE00000AFF860B9607A60FB6803F00703FB612F
:102BF000FB69C3F10703042B28BF0423BB61FB69F6
:102C00000433062B02D9FB69033B00E000237B6100
:102C10004FF0FF32BB6902FA03F3DA43BB681A4094
:102C20007B699A404FF0FF317B6901FA03F3D94386
:102C30007B680B40134318462437BD465DF8047B80
:102C40007047000080B582B000AF78607B68013BC0
:102C5000B3F1807F01D301230FE00A4A7B68013B77
:102C600053600F214FF0FF30FFF78EFF054B00221E
:102C70009A60044B07221A60002318460837BD46A5
:102C800080BD00BF10E000E080B582B000AF78608A
:102C90007868FFF705FF00BF0837BD4680BD80B5E7
:102CA00086B000AF0346B9607A60FB7300237B6196
:102CB000FFF71AFF78617A68B9687869FFF78EFFC5
:102CC000024697F90F3011461846FFF75DFF00BF27
:102CD0001837BD4680BD80B582B000AF0346FB719A
:102CE00097F907301846FFF70DFF00BF0837BD46BC
:102CF00080BD80B582B000AF0346FB7197F9073005
:102D00001846FFF71DFF00BF0837BD4680BD80B5E0
:102D100082B000AF78607868FFF794FF03461846EA
:102D20000837BD4680BD000080B586B000AF786032
:102D300000237B61FEF7E6FF38617B68002B01D141
:102D4000012399E07B68022283F835207B6800220A
:102D500083F834207B681B681A687B681B6822F044
:102D600001021A600FE0FEF7CDFF02463B69D31A5D
:102D7000052B08D97B6820225A657B68032283F8DB
:102D80003520032378E07B681B681B6803F0010390
:102D9000002BE8D17B681B681B687B617A69384B24
:102DA00013407B617B685A687B689B681A437B6829
:102DB000DB681A437B681B691A437B685B691A43AB
:102DC0007B689B691A437B68DB691A437B681B6AD3
:102DD00013437A6913437B617B685B6A042B07D1D9
:102DE0007B68DA6A7B681B6B13437A6913437B61E8
:102DF0007B681B687A691A607B681B685B697B610A
:102E00007B6923F007037B617B685B6A7A69134304
:102E10007B617B685B6A042B17D17B689B6A7A694C
:102E200013437B617B68DB6A002B0ED0786800F06F
:102E3000D9FA0346002B08D07B6840225A657B688C
:102E4000012283F83520012316E07B681B687A692C
:102E50005A61786800F090FA0346FB607B68DB6D8E
:102E60003F229A40FB689A607B6800225A657B6823
:102E7000012283F83520002318461837BD4680BD4F
:102E80003F8010F080B584B000AF78607B68002B85
:102E900001D1012350E07B6893F83530DBB2022B7F
:102EA00001D1022348E07B681B681A687B681B68B5
:102EB00022F001021A607B681B6800221A607B689E
:102EC0001B6800225A607B681B6800229A607B683E
:102ED0001B680022DA607B681B6800221A617B682D
:102EE0001B6821225A61786800F046FA0346FB60AD
:102EF0007B680022DA637B6800221A647B68002208
:102F00005A647B6800229A647B680022DA647B68DA
:102F100000221A657B68DB6D3F229A40FB689A604D
:102F20007B6800225A657B68002283F835207B6825
:102F3000002283F83420002318461037BD4680BD98
:102F400080B584B000AF78607B689B6DFB60FEF756
:102F5000D9FEB8607B6893F83530DBB2022B08D01D
:102F60007B6880225A657B68002283F83420012325
:102F700052E07B681B681A687B681B6822F01602A7
:102F80001A607B681B685A697B681B6822F08002A4
:102F90005A617B681B6C002B03D17B689B6C002BF8
:102FA00007D07B681B681A687B681B6822F00802E0
:102FB0001A607B681B681A687B681B6822F0010234
:102FC0001A6013E0FEF79EFE0246BB68D31A052B7B
:102FD0000CD97B6820225A657B68032283F8352050
:102FE0007B68002283F83420032315E07B681B688C
:102FF0001B6803F00103002BE4D17B68DB6D3F22EB
:103000009A40FB689A607B68012283F835207B68D0
:10301000002283F83420002318461037BD4680BDB7
:1030200080B483B000AF78607B6893F83530DBB252
:10303000022B04D07B6880225A6501230CE07B6858
:10304000052283F835207B681B681A687B681B683B
:1030500022F001021A60002318460C37BD465DF8C5
:10306000047B704780B586B000AF78600023BB60FA
:103070008E4B1B688E4AA2FB03239B0A7B617B68F5
:103080009B6D3B613B691B68FB607B68DB6D0822C5
:103090009A40FB681340002B1AD07B681B681B68A2
:1030A00003F00403002B13D07B681B681A687B684D
:1030B0001B6822F004021A607B68DB6D08229A40CC
:1030C0003B699A607B685B6D43F001027B685A65DF
:1030D0007B68DB6D01229A40FB681340002B12D005
:1030E0007B681B685B6903F08003002B0BD07B6857
:1030F000DB6D01229A403B699A607B685B6D43F00F
:1031000002027B685A657B68DB6D04229A40FB688B
:103110001340002B12D07B681B681B6803F002036E
:10312000002B0BD07B68DB6D04229A403B699A60D0
:103130007B685B6D43F004027B685A657B68DB6DDE
:1031400010229A40FB681340002B43D07B681B6819
:103150001B6803F00803002B3CD07B68DB6D10225A
:103160009A403B699A607B681B681B6803F4802364
:10317000002B18D07B681B681B6803F40023002B0E
:1031800008D17B681B6C002B24D07B681B6C786893
:1031900098471FE07B689B6C002B1BD07B689B6C67
:1031A0007868984716E07B681B681B6803F4807397
:1031B000002B07D17B681B681A687B681B6822F0AC
:1031C00008021A607B681B6C002B03D07B681B6CA9
:1031D000786898477B68DB6D20229A40FB68134033
:1031E000002B00F08F807B681B681B6803F01003C6
:1031F000002B00F087807B68DB6D20229A403B69C2
:103200009A607B6893F83530DBB2052B36D17B684A
:103210001B681A687B681B6822F016021A607B68BC
:103220001B685A697B681B6822F080025A617B68C0
:103230001B6C002B03D17B689B6C002B07D07B6839
:103240001B681A687B681B6822F008021A607B689A
:10325000DB6D3F229A403B699A607B68012283F8CC
:1032600035207B68002283F834207B681B6D002B9F
:103270007ED07B681B6D7868984779E07B681B6817
:103280001B6803F48023002B1DD07B681B681B6820
:1032900003F40023002B0DD17B685B6C002B31D035
:1032A0007B685B6C786898472CE000BF00000020CA
:1032B000B5814E1B7B68DB6B002B23D07B68DB6BFF
:1032C000786898471EE07B681B681B6803F480736E
:1032D000002B0FD17B681B681A687B681B6822F083
:1032E00010021A607B68012283F835207B68002277
:1032F00083F834207B68DB6B002B03D07B68DB6BAF
:10330000786898477B685B6D002B32D07B685B6D7B
:1033100003F00103002B22D07B68052283F83520BF
:103320007B681B681A687B681B6822F001021A60C0
:10333000BB680133BB607A699A4207D37B681B681C
:103340001B6803F00103002BF2D100E000BF7B6893
:10335000012283F835207B68002283F834207B68C3
:10336000DB6C002B05D07B68DB6C7868984700E04D
:1033700000BF1837BD4680BD80B485B000AF78600F
:103380007B681B68DBB2103B144AA2FB03231B09BA
:10339000FB60134AFB6813441B781A467B68DA65A6
:1033A000FB68032B09D97B681B6823F47F7323F028
:1033B00003031A1D7B689A6507E07B681B6823F48A
:1033C0007F7323F003037A6893657B689B6D1846CF
:1033D0001437BD465DF8047B704700BFABAAAAAAAC
:1033E000C8CF000880B485B000AF78600023FB73BD
:1033F0007B689B6ABB607B689B69002B1FD1BB68A5
:10340000032B56D801A252F823F000BF1D34000848
:103410002F3400081D340008B33400087B68DB6AD1
:1034200003F08073002B46D00123FB7343E07B68DD
:10343000DB6AB3F1C07F40D10123FB733DE07B68C1
:103440009B69B3F5005F21D1BB68032B37D801A27C
:1034500052F823F0653400086B3400086534000826
:103460007D3400080123FB7330E07B68DB6A03F0E6
:103470008073002B25D00123FB7322E07B68DB6A7D
:10348000B3F1C07F1FD10123FB731CE0BB68022B8B
:1034900003D9BB68032B03D018E00123FB7315E0AD
:1034A0007B68DB6A03F08073002B0ED00123FB7373
:1034B0000BE000BF0AE000BF08E000BF06E000BF6D
:1034C00004E000BF02E000BF00E000BFFB7B184645
:1034D0001437BD465DF8047B704700BF80B489B0E7
:1034E00000AF7860396000237B6100233B610023DB
:1034F000BB610023FB616BE10122FB6902FA03F36C
:103500007B613B681B687A6913403B613A697B6960
:103510009A4240F05A813B685B6803F00303012B39
:1035200005D03B685B6803F00303022B30D17B6856
:103530009B68BB61FB695B00032202FA03F3DB4378
:10354000BA691340BB613B68DA68FB695B0002FA49
:1035500003F3BA691343BB617B68BA699A607B68FD
:103560005B68BB610122FB6902FA03F3DB43BA69C2
:103570001340BB613B685B681B0903F00102FB69F8
:1035800002FA03F3BA691343BB617B68BA695A60F4
:103590003B685B6803F00303032B17D07B68DB6891
:1035A000BB61FB695B00032202FA03F3DB43BA69E8
:1035B0001340BB613B689A68FB695B0002FA03F346
:1035C000BA691343BB617B68BA69DA603B685B68C0
:1035D00003F00303022B23D1FB69DA087B6808326E
:1035E00053F82230BB61FB6903F007039B000F22F5
:1035F00002FA03F3DB43BA691340BB613B681A6903
:10360000FB6903F007039B0002FA03F3BA69134353
:10361000BB61FB69DA087B680832B96943F822109C
:103620007B681B68BB61FB695B00032202FA03F342
:10363000DB43BA691340BB613B685B6803F003027C
:10364000FB695B0002FA03F3BA691343BB617B6851
:10365000BA691A603B685B6803F44033002B00F0E2
:10366000B4800023FB60604B5B6C5F4A43F4804393
:1036700053645D4B5B6C03F48043FB60FB685B4A07
:10368000FB699B08023352F82330BB61FB6903F0EE
:1036900003039B000F2202FA03F3DB43BA691340D2
:1036A000BB617B68524A93422BD07B68514A93425C
:1036B00025D07B68504A93421FD07B684F4A934283
:1036C00019D07B684E4A934213D07B684D4A93428F
:1036D0000DD07B684C4A934207D07B684B4A93429B
:1036E00001D107230EE008230CE006230AE005239E
:1036F00008E0042306E0032304E0022302E00123A0
:1037000000E00023FA6902F0030292009340BA69D4
:103710001343BB613549FB699B080233BA6941F821
:1037200023203B4B9B68BB613B69DB43BA69134079
:10373000BB613B685B6803F48013002B03D0BA695C
:103740003B691343BB61324ABB699360304BDB6812
:10375000BB613B69DB43BA691340BB613B685B6893
:1037600003F40013002B03D0BA693B691343BB6118
:10377000274ABB69D360264B5B68BB613B69DB436F
:10378000BA691340BB613B685B6803F40033002BEC
:1037900003D0BA693B691343BB611D4ABB695360DF
:1037A0001B4B1B68BB613B69DB43BA691340BB61C0
:1037B0003B685B6803F48033002B03D0BA693B6934
:1037C0001343BB61124ABB691360FB690133FB61A0
:1037D000FB690F2B7FF690AE00BF00BF2437BD46BC
:1037E0005DF8047B704700BF00380240003801409C
:1037F000000002400004024000080240000C0240A9
:10380000001002400014024000180240001C024058
:10381000003C014080B487B000AF7860396000237D
:103820003B610023FB600023BB6000237B61CDE094
:1038300001227B6902FA03F33B613A683B6913405A
:10384000FB60FA683B699A4240F0BD80654A7B693B
:103850009B08023352F82330BB607B6903F00303FB
:103860009B000F2202FA03F3BA681340BB607B6827
:103870005D4A93422BD07B685C4A934225D07B689B
:103880005B4A93421FD07B685A4A934219D07B68A7
:10389000594A934213D07B68584A93420DD07B68B3
:1038A000574A934207D07B68564A934201D1072377
:1038B0000EE008230CE006230AE0052308E00423B9
:1038C00006E0032304E0022302E0012300E00023DA
:1038D0007A6902F0030292009340BA689A4232D1A8
:1038E000494B1A68FB68DB43474913400B60464B62
:1038F0005A68FB68DB43444913404B60424BDA682B
:10390000FB68DB4340491340CB603F4B9A68FB6840
:10391000DB433D4913408B607B6903F003039B004D
:103920000F2202FA03F3BB602E4A7B699B08023325
:1039300052F82310BB68DA432A487B699B080A4087
:10394000023340F823207B681A687B695B000321FF
:1039500001FA03F3DB431A407B681A607B69DA08DB
:103960007B68083253F822107B6903F007039B0041
:103970000F2202FA03F3DB437A69D20819407B680D
:10398000083243F822107B68DA687B695B00032108
:1039900001FA03F3DB431A407B68DA607B685A68FC
:1039A00001217B6901FA03F3DB431A407B685A600B
:1039B0007B689A687B695B00032101FA03F3DB43B0
:1039C0001A407B689A607B6901337B617B690F2BAE
:1039D0007FF62EAF00BF00BF1C37BD465DF8047BED
:1039E000704700BF00380140000002400004024060
:1039F00000080240000C0240001002400014024087
:103A000000180240001C0240003C014080B483B01A
:103A100000AF78600B467B8013467B707B78002B71
:103A200003D07A887B689A6103E07B881A047B68FC
:103A30009A6100BF0C37BD465DF8047B70470000FB
:103A400080B584B000AF78607B68002B01D1012382
:103A50002BE17B6893F83D30DBB2002B06D17B680D
:103A6000002283F83C207868FCF7C8FF7B6824229A
:103A700083F83D207B681B681A687B681B6822F00E
:103A800001021A607B681B681A687B681B6842F435
:103A900000421A607B681B681A687B681B6822F406
:103AA00000421A6001F0D2FFF8607B685B68814ACF
:103AB000934207D8FB68804A934294BF01230023B6
:103AC000DBB206E0FB687D4A934294BF01230023EA
:103AD000DBB2002B01D00123E7E0FB68784AA2FBB0
:103AE00003239B0CBB607B681B685B6823F03F0172
:103AF0007B681B68BA680A435A607B681B681B6A4C
:103B000023F03F017B685B686A4A934202D8BB6836
:103B1000013309E0BB684FF4967202FB03F3694A74
:103B2000A2FB03239B0901337A6812680B431362DB
:103B30007B681B68DB6923F44F4222F0FF027B683D
:103B40005B685C498B4219D8FB68591E7B685B68CF
:103B50005B00B1FBF3F3591C40F6FC730B40002BE8
:103B60000AD0FB68591E7B685B685B00B1FBF3F30E
:103B70000133C3F30B0351E004234FE07B689B68E0
:103B8000002B11D1FB68581E7B6859680B465B00FF
:103B90000B44B0FBF3F30133C3F30B03002B0CBF57
:103BA00001230023DBB212E0FB68581E7B685968D2
:103BB0000B469B000B4499000B44B0FBF3F301331D
:103BC000C3F30B03002B0CBF01230023DBB2002B3C
:103BD00001D0012322E07B689B68002B0ED1FB689B
:103BE000581E7B6859680B465B000B44B0FBF3F32F
:103BF0000133C3F30B0343F400430FE0FB68581E8B
:103C00007B6859680B469B000B4499000B44B0FB42
:103C1000F3F30133C3F30B0343F4404379680968BA
:103C20001343CB617B681B681B6823F0C0017B6872
:103C3000DA697B681B6A1A437B681B680A431A604F
:103C40007B681B689B6823F4034323F0FF037A68B7
:103C500011697A68D26811437A6812680B439360DD
:103C60007B681B68DB6823F0FF017B685A697B680F
:103C70009B691A437B681B680A43DA607B681B6890
:103C80001A687B681B6842F001021A607B68002298
:103C90001A647B68202283F83D207B6800221A6327
:103CA0007B68002283F83E20002318461037BD466B
:103CB00080BD00BFA08601007F841E00FF083D007C
:103CC00083DE1B43D34D621080B586B002AF7860AF
:103CD0007B68002B01D1012301E17B681B68BB607D
:103CE0007B6893F89534DBB2002B06D17B68002209
:103CF00083F894247868FDF789FB7B68032283F8B6
:103D00009524BB68B3F1A04F02D17B6800229A7161
:103D10007B681B68184603F09AFD7B6818687B680F
:103D20001A7C8DF8002004330ECB03F079FC034697
:103D3000002B05D07B68022283F895240123CEE076
:103D40007B681B680021184603F092FD0346002B98
:103D500005D07B68022283F895240123BFE000236D
:103D6000FB734AE0FA7B79681346DB0013449B003F
:103D70000B44153301221A70FA7B79681346DB0075
:103D800013449B000B441433FA7B1A70FA7BFB7BC1
:103D900098B279681346DB0013449B000B442E3322
:103DA00002461A80FA7B79681346DB0013449B00B5
:103DB0000B44183300221A70FA7B79681346DB0033
:103DC00013449B000B441C3300221A60FA7B796871
:103DD0001346DB0013449B000B44203300221A607F
:103DE000FA7B79681346DB0013449B000B442433B1
:103DF00000221A60FB7B0133FB737B681B79FA7B23
:103E00009A42AFD30023FB7344E0FA7B79681346F0
:103E1000DB0013449B000B4403F2552300221A706D
:103E2000FA7B79681346DB0013449B000B4403F5CF
:103E30001573FA7B1A70FA7B79681346DB0013441A
:103E40009B000B4403F5167300221A70FA7B796805
:103E50001346DB0013449B000B4403F51773002249
:103E60001A60FA7B79681346DB0013449B000B440D
:103E700003F5187300221A60FA7B79681346DB0099
:103E800013449B000B4403F5197300221A60FB7B5B
:103E90000133FB737B681B79FA7B9A42B5D37B684D
:103EA00018687B681A7C8DF8002004330ECB03F071
:103EB0002BFD0346002B05D07B68022283F8952456
:103EC00001230CE07B6800225A747B68012283F88E
:103ED00095247B681B68184604F075FD002318467E
:103EE0001037BD4680BD80B584B000AF78607B6878
:103EF0001B68FB607B6893F89434012B01D102238B
:103F000022E07B68012283F89424FB68DB6803F0DD
:103F10004003002B09D07B685B7B012B05D1FB683C
:103F20009B6B43F48032FB689A637B681B6818467E
:103F300003F07CFC7B681B68184604F023FD7B685B
:103F4000002283F89424002318461037BD4680BD14
:103F500090B58DB000AF78607B681B683B623B6AB0
:103F6000FB617B681B68184604F0E1FD0346002BEB
:103F700040F08C847B681B68184604F045FD0346BE
:103F8000002B00F08284FB6903F500639B681B0A29
:103F9000C3F30D027B68C3F8D4247B681B68184602
:103FA00004F032FD034603F00203022B07D17B68C5
:103FB0001B685A697B681B6802F002025A617B68C1
:103FC0001B68184604F020FD034603F01003102B75
:103FD00061D17B681B689A697B681B6822F01002BC
:103FE0009A613B6A1B6ABB61BB6903F00F0213460F
:103FF000DB0013449B0003F514737A681344043305
:104000007B61BB6903F4F013B3F5802F24D1BA6947
:1040100047F6F0731340002B35D07B69D968BB6934
:104020001B099BB2C3F30A039BB21A46386A04F019
:1040300057FB7B69DA68BB691B09C3F30A031A449F
:104040007B69DA607B695A69BB691B09C3F30A03A0
:104050001A447B695A6116E0BB6903F4F013B3F5A7
:10406000402F10D17B6803F29C4308221946386A1E
:1040700004F036FB7B695A69BB691B09C3F30A0369
:104080001A447B695A617B681B689A697B681B6864
:1040900042F010029A617B681B68184604F0B4FC79
:1040A000034603F40023B3F5002F40F0A78000235C
:1040B0007B627B681B68184604F0B9FCB86299E023
:1040C000BB6A03F00103002B00F08E807B681B6845
:1040D0007A6AD2B21146184604F0DDFC38613B69B9
:1040E00003F00103002B0CD07B6A5A01FB691344D7
:1040F00003F530631A4601239360796A786800F00B
:10410000A3FE3B6903F00803002B0CD07B6A5A0125
:10411000FB69134403F530631A4608239360796AF8
:10412000786800F079FF3B6903F01003002B08D09A
:104130007B6A5A01FB69134403F530631A46102366
:1041400093603B6903F00203002B30D03B6A5B694C
:1041500003F08003802B09D1FB6903F500635B68E2
:10416000FA6902F5006243F4806353607A6A134689
:10417000DB0013449B0003F514737A681344043383
:104180007B617B69DB78012B08D17B690022DA70C7
:104190007B6ADBB21946786808F014F87B6A5A012A
:1041A000FB69134403F530631A46022393603B69AD
:1041B00003F02003002B08D07B6A5A01FB691344EB
:1041C00003F530631A46202393603B6903F40053E0
:1041D000002B09D07B6A5A01FB69134403F5306355
:1041E0001A464FF4005393607B6A01337B62BB6ACB
:1041F0005B08BB62BB6A002B7FF462AF7B681B6805
:10420000184604F001FC034603F48023B3F5802F25
:1042100040F0DB807B681B68184604F022FCB86223
:1042200000237B62CDE0BB6A03F00103002B00F0AA
:10423000C2807B681B687A6AD2B21146184604F0C5
:1042400048FC38613B6903F00103002B57D07B6ABF
:1042500003F00F03012202FA03F3FB60FB6903F58D
:1042600000635A6BFB68DB43F96901F50061134099
:104270004B637B6A5A01FB69134403F510631A46CA
:10428000012393607B689B79012B32D179687A6A2C
:104290001346DB0013449B000B44203319687868F5
:1042A0007A6A1346DB0013449B0003441C331B68EB
:1042B000194478687A6A1346DB0013449B00034470
:1042C000203319607B6A002B13D179687A6A134610
:1042D000DB0013449B000B4424331B68002B08D1E4
:1042E0007B6818687B6803F29C431A46012104F03E
:1042F0004FFC7B6ADBB21946786807F0DEFE3B694B
:1043000003F00803002B08D07B6A5A01FB691344B1
:1043100003F510631A46082393603B6903F010030A
:10432000002B08D07B6A5A01FB69134403F5106324
:104330001A46102393603B6903F04003002B08D01A
:104340007B6A5A01FB69134403F510631A46402344
:1043500093603B6903F00203002B23D0796A386A2B
:1043600003F036FC7A6A1346DB0013449B001033DB
:104370007A68134404337B617B69DB78012B08D1B5
:104380007B690022DA707B6ADBB21946786807F035
:104390002BFF7B6A5A01FB69134403F510631A462D
:1043A000022393603B6903F08003002B03D0796AFA
:1043B000786800F0BDFC7B6A01337B62BB6A5B08F6
:1043C000BB62BB6A002B7FF42EAF7B681B6818466C
:1043D00004F01AFB034603F00043B3F1004F22D16F
:1043E000FB6903F500635B68FA6902F5006223F07C
:1043F000010353607B6893F8CC34012B08D17B68B0
:10440000002283F8CC240021786800F0A3FE02E0AB
:10441000786807F0C9FE7B681B685A697B681B686F
:1044200002F000425A617B681B68184604F0ECFAFF
:10443000034603F40063B3F5006F12D1FB6903F583
:1044400000639B6803F00103012B02D1786807F039
:1044500085FE7B681B685A697B681B6802F40062F2
:104460005A617B681B68184604F0CEFA034603F4D1
:104470008053B3F5805F40F0B780FB6903F50063BC
:104480005B68FA6902F5006223F0010353607B6800
:104490001B681021184603F09BFB0023FB6246E0DB
:1044A000FB6A5A01FB69134403F510631A464FF681
:1044B0007F339360FB6A5A01FB69134403F5106371
:1044C0001B68FA6A5101FA690A4402F5106223F482
:1044D00000131360FB6A5A01FB69134403F5306350
:1044E0001A464FF67F339360FB6A5A01FB69134407
:1044F00003F530631B68FA6A5101FA690A4402F550
:10450000306223F400131360FB6A5A01FB69134401
:1045100003F530631B68FA6A5101FA690A4402F52F
:10452000306243F000631360FB6A0133FB627B6817
:104530001B791A46FB6A9342B2D3FB6903F5006309
:10454000DB69FA6902F5006243F00113D3617B680D
:10455000DB7B002B16D0FB6903F50063D3F88430B6
:10456000FA6902F5006243F00B03C2F88430FB697C
:1045700003F500635B6CFA6902F5006243F00B031C
:10458000536415E0FB6903F500635B69FA6902F5A2
:10459000006243F4005343F02B035361FB6903F5BE
:1045A00000631B69FA6902F5006243F00B031361B3
:1045B000FB6903F500631B68FA6902F5006223F4E6
:1045C000FE6313607B6818687B6899797B6803F2E7
:1045D0009C431A4604F0DCFA7B681B685A697B68C6
:1045E0001B6802F480525A617B681B68184604F00D
:1045F0000BFA034603F40053B3F5005F23D17B6845
:104600001B68184604F0A1FA7B681B68184603F083
:1046100058FB03461A467B68DA717B681C6801F018
:1046200009FA01467B68DB791A46204603F05CF8FC
:10463000786807F06AFD7B681B685A697B681B68AD
:1046400002F400525A617B681B68184604F0DCF9DA
:10465000034603F00803082B0AD1786807F047FDEA
:104660007B681B685A697B681B6802F008025A6104
:104670007B681B68184604F0C7F9034603F0800303
:10468000802B23D13B6A9B6923F080023B6A9A61AD
:1046900001237B6214E079687A6A1346DB001344D5
:1046A0009B000B4403F257231B78012B05D17B6A37
:1046B000DBB21946786800F00AFB7B6A01337B6243
:1046C0007B681B791A467B6A9342E4D37B681B683C
:1046D000184604F099F9034603F48013B3F5801FDC
:1046E0003CD101237B622BE07B6A5A01FB691344B6
:1046F00003F510631B68BB6179687A6A1346DB00B7
:1047000013449B000B4418331B78012B15D1BB6954
:10471000002B12DA79687A6A1346DB0013449B0097
:104720000B44173301221A707B6ADBB263F07F03FC
:10473000DBB21946786800F0CAFA7B6A01337B6203
:104740007B681B791A467B6A9342CDD37B681B68D2
:104750005A697B681B6802F480125A617B681B6887
:10476000184604F051F9034603F40013B3F5001F93
:1047700056D101237B6245E07B6A5A01FB691344F1
:1047800003F530631B68BB6179687A6A1346DB0006
:1047900013449B000B4403F516731B78012B2ED199
:1047A000BB69002B2BDABB691A0C7B68D3F8D434B5
:1047B000534003F00103002B21D179687A6A134634
:1047C000DB0013449B000B4403F2572301221A70B1
:1047D0003B6A9B6943F080023B6A9A613B6A5B6972
:1047E00003F08003002B0AD1FB6903F500635B68CB
:1047F000FA6902F5006243F40073536008E07B6AD3
:1048000001337B627B681B791A467B6A9342B3D380
:104810007B681B685A697B681B6802F400125A6146
:104820007B681B68184604F0EFF8034603F08043EA
:10483000B3F1804F0AD1786807F0E8FC7B681B6809
:104840005A697B681B6802F080425A617B681B686A
:10485000184604F0D9F8034603F00403042B15D1DD
:104860007B681B685B68BB61BB6903F00403002BBA
:1048700002D0786807F0D8FC7B681B6859687B68B1
:104880001B68BA690A435A6000E000BF3437BD466E
:1048900090BD80B582B000AF78600B46FB707B683E
:1048A00093F89434012B01D1022312E07B6801229A
:1048B00083F894247B68FA785A747B681B68FA78CA
:1048C0001146184604F038F87B68002283F89424D7
:1048D000002318460837BD4680BD80B584B000AFC0
:1048E0007860084611461A460346FB700B463B802B
:1048F0001346BB700023FB7297F90330002B0FDACD
:10490000FB7803F00F021346DB0013449B001033C7
:104910007A6813440433FB60FB6801225A700FE08D
:10492000FB7803F00F021346DB0013449B0003F5F2
:1049300014737A6813440433FB60FB6800225A70D6
:10494000FB7803F00F03DAB2FB681A703B88C3F3FD
:104950000A02FB689A60FB68BA781A71FB685B7898
:10496000002B04D0FB681B781A46FB685A83BB787F
:10497000022B02D1FB6800225A717B6893F89434B1
:10498000012B01D102230EE07B68012283F89424DD
:104990007B681B68F968184603F0B8F97B68002249
:1049A00083F89424FB7A18461037BD4680BD80B545
:1049B00084B000AF78600B46FB7097F90330002B92
:1049C0000FDAFB7803F00F021346DB0013449B0061
:1049D00010337A6813440433FB60FB6801225A7079
:1049E0000FE0FB7803F00F021346DB0013449B003B
:1049F00003F514737A6813440433FB60FB680022E8
:104A00005A70FB7803F00F03DAB2FB681A707B6808
:104A100093F89434012B01D102230EE07B6801222C
:104A200083F894247B681B68F968184603F0F6F94C
:104A30007B68002283F89424002318461037BD4673
:104A400080BD80B586B000AFF8607A603B600B46F1
:104A5000FB72FB7A03F00F021346DB0013449B004A
:104A600003F51473FA68134404337B617B697A6835
:104A7000DA607B693A681A617B6900225A617B6956
:104A800000225A70FB7A03F00F03DAB27B691A70C6
:104A9000FB689B79012B02D17A687B69DA61FB683C
:104AA0001868FB689B791A46796903F093FA00232A
:104AB00018461837BD4680BD80B483B000AF78601B
:104AC0000B46FB70FB7803F00F0279681346DB009E
:104AD00013449B000B4403F51A731B6818460C37EC
:104AE000BD465DF8047B704780B586B000AFF860C6
:104AF0007A603B600B46FB72FB7A03F00F021346B1
:104B0000DB0013449B001033FA68134404337B61C9
:104B10007B697A68DA607B693A681A617B6900228E
:104B20005A617B6901225A70FB7A03F00F03DAB2F3
:104B30007B691A70FB689B79012B02D17A687B69CB
:104B4000DA61FB681868FB689B791A46796903F09B
:104B500041FA002318461837BD4680BD80B584B0A1
:104B600000AF78600B46FB70FB7803F00F037A68A8
:104B70001279934201D901234FE097F90330002BBA
:104B80000FDAFB7803F00F021346DB0013449B009F
:104B900010337A6813440433FB60FB6801225A70B7
:104BA0000DE0FA781346DB0013449B0003F5147301
:104BB0007A6813440433FB60FB6800225A70FB6878
:104BC00001229A70FB7803F00F03DAB2FB681A70C7
:104BD0007B6893F89434012B01D102231DE07B689C
:104BE000012283F894247B681B68F968184603F057
:104BF000CFFDFB7803F00F03002B09D17B68186809
:104C00007B6899797B6803F29C431A4603F0C0FFE6
:104C10007B68002283F89424002318461037BD4691
:104C200080BD80B584B000AF78600B46FB70FB7828
:104C300003F00F037A681279934201D9012342E00D
:104C400097F90330002B0FDAFB7803F00F021346BD
:104C5000DB0013449B0010337A6813440433FB6079
:104C6000FB6801225A700FE0FB7803F00F02134635
:104C7000DB0013449B0003F514737A681344043378
:104C8000FB60FB6800225A70FB6800229A70FB7878
:104C900003F00F03DAB2FB681A707B6893F8943460
:104CA000012B01D102230EE07B68012283F89424BA
:104CB0007B681B68F968184603F0D8FD7B68002202
:104CC00083F89424002318461037BD4680BD80B574
:104CD00084B000AF78600B46FB7097F90330002B6F
:104CE0000CDAFB7803F00F021346DB0013449B0041
:104CF00010337A6813440433FB600CE0FB7803F054
:104D00000F021346DB0013449B0003F514737A680B
:104D100013440433FB607B681B68F968184603F092
:104D2000F7FB0346FB72FB7A18461037BD4680BD81
:104D300080B58AB002AF786039607B681B687B61A0
:104D40007B693B613A681346DB0013449B001033D8
:104D50007A6813440433FB60FB685A69FB681B697B
:104D60009A4201D901236BE0FB681A69FB685B6911
:104D7000D31AFB61FB689B68FA699A4202D9FB6807
:104D80009B68FB61FB6903339B08BB612AE0FB68FE
:104D90001A69FB685B69D31AFB61FB689B68FA6957
:104DA0009A4202D9FB689B68FB61FB6903339B084D
:104DB000BB61FB68D9683B68DAB2FB6998B27B6873
:104DC0009B7900930346786903F04CFCFB68DA6832
:104DD000FB691A44FB68DA60FB685A69FB691A448C
:104DE000FB685A613B685A013B69134403F5106341
:104DF0009B699BB2BA699A4209D8FB685A69FB68F9
:104E00001B699A4203D2FB681B69002BBFD1FB6868
:104E10001A69FB685B699A4211D83B6803F00F037B
:104E2000012202FA03F3BB603B6903F500635A6B8E
:104E3000BB68DB43396901F5006113404B63002314
:104E400018462037BD4680BD80B588B000AF786079
:104E500039607B681B68FB61FB69BB61FB693C33A4
:104E600004331B687B613B685A01BB69134403F53B
:104E700030639B683B617B689B79012B7BD13B69ED
:104E800003F00803002B15D07B69614A934240F27E
:104E9000B9803B6903F40043002B00F0B3803B680A
:104EA0005A01BB69134403F530631A464FF40043BB
:104EB0009360A7E03B6903F02003002B09D03B6817
:104EC0005A01BB69134403F530631A4620239360EB
:104ED00098E03B6903F02803002B40F093807B6946
:104EE0004B4A93420FD93B6903F40043002B0AD08D
:104EF0003B685A01BB69134403F530631A464FF40B
:104F0000004393607EE03A681346DB0013449B0045
:104F100003F514737A6813440433FB60FB681A6A60
:104F20003B685901BB690B4403F530631B69C3F34C
:104F30001203D21AFB685A613B68002B14D1FB683C
:104F40001B69002B09D17B6818687B6803F29C43BE
:104F50001A46012103F01CFE06E0FB68DA68FB68D4
:104F60005B691A44FB68DA603B68DBB21946786813
:104F700007F088F846E07B69264A934224D13B69D2
:104F800003F40043002B0AD03B685A01BB69134469
:104F900003F530631A464FF40043936032E03B69F7
:104FA00003F02003002B08D03B685A01BB6913446F
:104FB00003F530631A46202393603B68DBB2194641
:104FC000786807F05FF81DE03B68002B14D1796822
:104FD0003A681346DB0013449B000B4403F5197336
:104FE0001B68002B08D17B6818687B6803F29C4320
:104FF0001A46002103F0CCFD3B68DBB21946786805
:1050000007F040F8002318462037BD4680BD00BF9A
:105010000A30544F0A31544F80B586B000AF7860E3
:1050200039607B681B687B617B693B617B693C33D2
:1050300004331B68FB603B685A013B69134403F56A
:1050400030639B68BB60FB68154A93420ED9BB680E
:1050500003F40043002B09D03B685A013B69134419
:1050600003F530631A464FF400439360786806F006
:10507000F7FFFB680A4A93420CD97B689B79012BA6
:1050800008D17B6818687B6803F29C431A460121AB
:1050900003F07EFD002318461837BD4680BD00BFD3
:1050A0000A30544F80B485B000AF78600B46FB7077
:1050B00013463B807B681B685B6ABB60FB78002BF8
:1050C00007D13B8819047B681B68BA680A439A6257
:1050D00028E07B681B689B6A1B0CBA681344BB60A2
:1050E0000023FB730DE07B681A68FB7B40339B0059
:1050F00013445B681B0CBA681344BB60FB7B013331
:10510000FB73FA7BFB78013B9A42ECD33B88180493
:105110007B681968FB78013BBA68024340339B0007
:105120000B445A60002318461437BD465DF8047BD3
:10513000704780B483B000AF78600B467B807B689B
:105140001B687A885A62002318460C37BD465DF802
:10515000047B704780B483B000AF78600B46FB706F
:1051600000BF0C37BD465DF8047B704780B586B044
:1051700000AF78607B68002B01D1012367E27B6878
:105180001B6803F00103002B75D0884B9B6803F06C
:105190000C03042B0CD0854B9B6803F00C03082BED
:1051A00012D1824B5B6803F48003B3F5800F0BD1FF
:1051B0007E4B1B6803F40033002B5BD07B685B687D
:1051C000002B57D1012342E27B685B68B3F5803F37
:1051D00006D1764B1B68754A43F4803313601DE09B
:1051E0007B685B68B3F5A02F0CD1704B1B686F4ACE
:1051F00043F4802313606D4B1B686C4A43F4803387
:1052000013600BE0694B1B68684A23F4803313601A
:10521000664B1B68654A23F4802313607B685B68D8
:10522000002B13D0FCF76EFD386108E0FCF76AFD37
:1052300002463B69D31A642B01D9032307E25B4B77
:105240001B6803F40033002BF0D014E0FCF75AFD88
:10525000386108E0FCF756FD02463B69D31A642B1F
:1052600001D90323F3E1514B1B6803F40033002BF6
:10527000F0D100E000BF7B681B6803F00203002B45
:1052800063D04A4B9B6803F00C03002B0BD0474BB9
:105290009B6803F00C03082B1CD1444B5B6803F4A0
:1052A0008003002B16D1414B1B6803F00203002B37
:1052B00005D07B68DB68012B01D00123C7E13B4BA4
:1052C0001B6823F0F8027B681B69DB003749134336
:1052D0000B603AE07B68DB68002B20D0344B012266
:1052E0001A60FCF70FFD386108E0FCF70BFD024681
:1052F0003B69D31A022B01D90323A8E12B4B1B686E
:1053000003F00203002BF0D0284B1B6823F0F802B7
:105310007B681B69DB00254913430B6015E0244BB8
:1053200000221A60FCF7EEFC386108E0FCF7EAFCAA
:1053300002463B69D31A022B01D9032387E11B4B99
:105340001B6803F00203002BF0D17B681B6803F09D
:105350000803002B36D07B685B69002B16D0154BF9
:1053600001221A60FCF7CEFC386108E0FCF7CAFCA9
:1053700002463B69D31A022B01D9032367E10B4B89
:105380005B6F03F00203002BF0D01BE0094B0022FF
:105390001A60FCF7B7FC38610EE0FCF7B3FC02467C
:1053A0003B69D31A022B07D9032350E1003802408E
:1053B00000004742800E4742884B5B6F03F00203B8
:1053C000002BEAD17B681B6803F00403002B00F07C
:1053D00097800023FB75814B1B6C03F08053002BDF
:1053E0000FD10023BB607D4B1B6C7C4A43F0805384
:1053F00013647A4B1B6C03F08053BB60BB680123C2
:10540000FB75774B1B6803F48073002B18D1744B2A
:105410001B68734A43F480731360FCF773FC3861B4
:1054200008E0FCF76FFC02463B69D31A022B01D956
:1054300003230CE16A4B1B6803F48073002BF0D04C
:105440007B689B68012B06D1644B1B6F634A43F05A
:10545000010313671CE07B689B68052B0CD15F4B35
:105460001B6F5E4A43F0040313675C4B1B6F5B4A80
:1054700043F0010313670BE0584B1B6F574A23F0AF
:1054800001031367554B1B6F544A23F00403136742
:105490007B689B68002B15D0FCF734FC38610AE070
:1054A000FCF730FC02463B69D31A41F28832934242
:1054B00001D90323CBE0494B1B6F03F00203002B00
:1054C000EED014E0FCF71EFC38610AE0FCF71AFC91
:1054D00002463B69D31A41F28832934201D9032331
:1054E000B5E03E4B1B6F03F00203002BEED1FB7DBA
:1054F000012B05D1394B1B6C384A23F080531364C0
:105500007B689B69002B00F0A180344B9B6803F003
:105510000C03082B5CD07B689B69022B41D1314B7B
:1055200000221A60FCF7EEFB386108E0FCF7EAFBAA
:1055300002463B69D31A022B01D9032387E0274B8C
:105540001B6803F00073002BF0D17B68DA697B687D
:105550001B6A1A437B685B6A9B011A437B689B6AE0
:105560005B08013B1B041A437B68DB6A1B061B4973
:1055700013434B601B4B01221A60FCF7C3FB3861DD
:1055800008E0FCF7BFFB02463B69D31A022B01D9A6
:1055900003235CE0114B1B6803F00073002BF0D079
:1055A00054E0104B00221A60FCF7ACFB386108E0B5
:1055B000FCF7A8FB02463B69D31A022B01D903234F
:1055C00045E0064B1B6803F00073002BF0D13DE073
:1055D0007B689B69012B07D1012338E0003802402A
:1055E00000700040600047421B4B5B68FB607B68BB
:1055F0009B69012B28D0FB6803F480027B68DB6980
:105600009A4221D1FB6803F03F027B681B6A9A42F1
:105610001AD1FA6847F6C07313407A68526A920149
:10562000934211D1FB6803F440327B689B6A5B08AC
:10563000013B1B049A4207D1FB6803F070627B6850
:10564000DB6A1B069A4201D0012300E000231846C2
:105650001837BD4680BD00BF0038024080B584B019
:1056600000AF786039607B68002B01D10123CCE06A
:10567000684B1B6803F007033A689A420CD9654BE4
:105680003A68D2B21A70634B1B6803F007033A689A
:105690009A4201D00123B8E07B681B6803F0020343
:1056A000002B20D07B681B6803F00403002B05D07F
:1056B000594B9B68584A43F4E05393607B681B68DE
:1056C00003F00803002B05D0534B9B68524A43F468
:1056D00060439360504B9B6823F0F0027B689B68AB
:1056E0004D4913438B607B681B6803F00103002B5B
:1056F00044D07B685B68012B07D1474B1B6803F4E0
:105700000033002B19D101237FE07B685B68022BFB
:1057100003D07B685B68032B07D13F4B1B6803F00A
:105720000073002B09D101236FE03B4B1B6803F092
:105730000203002B01D1012367E0374B9B6823F064
:1057400003027B685B68344913438B60FCF7DAFA29
:10575000F8600AE0FCF7D6FA0246FB68D31A41F279
:105760008832934201D903234FE02B4B9B6803F00F
:105770000C027B685B689B009A42EBD1254B1B684F
:1057800003F007033A689A420CD2224B3A68D2B22D
:105790001A70204B1B6803F007033A689A4201D045
:1057A000012332E07B681B6803F00403002B08D060
:1057B000194B9B6823F4E0527B68DB68164913435E
:1057C0008B607B681B6803F00803002B09D0124B29
:1057D0009B6823F460427B681B69DB000E4913431E
:1057E0008B6000F021F802460B4B9B681B0903F00D
:1057F0000F030A49CB5C22FA03F3094A1360094BF1
:105800001B681846FCF73AFA002318461037BD46C5
:1058100080BD00BF003C024000380240B0CF00080D
:1058200000000020100000202DE9B04F94B000AF20
:1058300000237B640023FB6400233B640023BB64E0
:10584000794B9B6803F00C03082B0DD0082B00F25A
:10585000E180002B02D0042B03D0DBE0734BBB6450
:10586000DBE0734BBB64D8E06F4B5B6803F03F0336
:105870007B646D4B5B6803F48003002B63D06A4B41
:105880005B689B090022BB63FA63BB6BC3F308032D
:105890003B6300237B63D7E90C4522462B464FF040
:1058A00000004FF00001590141EAD2615001024667
:1058B0000B462146511A3961294663EB01037B618E
:1058C0004FF000024FF00003D7E904AB59468B01BB
:1058D000514643EA916351468A015146B2EB0108B1
:1058E000594663EB01094FF000024FF000034FEA05
:1058F000C90343EA58734FEAC802904699462346C3
:1059000018EB0303BB602B4649EB0303FB604FF02E
:1059100000024FF00003D7E9024529464B02214619
:1059200043EAD15321464A02104619467B6C0022B5
:10593000BB62FA62D7E90A23FAF79AFC02460B46E1
:105940001346FB6458E0384B5B689B0900221846FD
:105950001146C0F308033B6200237B62D7E9088944
:1059600042464B464FF000004FF00001590141EA1A
:10597000D261500102460B464146B2EB010A49464C
:1059800063EB010B4FF000024FF000034FEA8B1363
:1059900043EA9A634FEA8A12B2EB0A0463EB0B05FF
:1059A0004FF000024FF00003EB0043EA5473E200B3
:1059B00014461D464346E3183B604B4645EB030344
:1059C0007B604FF000024FF00003D7E90045294605
:1059D0008B02214643EA915321468A02104619461A
:1059E0007B6C0022BB61FA61D7E90623FAF740FC21
:1059F00002460B461346FB640B4B5B681B0C03F023
:105A0000030301335B003B64FA6C3B6CB2FBF3F3C2
:105A1000BB6402E0054BBB6400BFBB6C184650374B
:105A2000BD46BDE8B08F00BF003802400024F4003E
:105A300000127A0080B400AF034B1B681846BD46C5
:105A40005DF8047B704700BF0000002080B500AF08
:105A5000FFF7F0FF0246054B9B689B0A03F0070324
:105A60000349CB5C22FA03F3184680BD003802409C
:105A7000C0CF000880B500AFFFF7DCFF0246054B42
:105A80009B685B0B03F007030349CB5C22FA03F32B
:105A9000184680BD00380240C0CF000880B582B0F3
:105AA00000AF78607B68002B01D1012341E07B6867
:105AB00093F83D30DBB2002B06D17B68002283F8DF
:105AC0003C207868FBF7C8FA7B68022283F83D2007
:105AD0007B681A687B6804331946104600F03CFB6B
